:1000000057C1000084C1000082C1000080C100000F
:100010007EC100007CC100007AC1000078C10000F0
:1000200076C1000074C1000072C1000070C1000000
:100030006EC100006CC100006AC1000068C1000010
:1000400066C1000064C1000062C1000060C1000020
:100050005EC100005CC100005AC1000023C4000062
:1000600056C1000054C1000052C1000050C1000040
:100070004EC100004CC100004AC1000048C1000050
:1000800046C1000044C1000042C1000040C1000060
:100090003EC100003CC100003AC1000038C1000070
:1000A00036C1000034C1000032C1000030C1000080
:1000B0002EC100002CC100002AC100003DC4000078
:1000C00026C1000024C1000022C1000020C10000A0
:1000D0001EC100001CC100001AC1000018C10000B0
:1000E00016C100006364696E6F70737578585B00A9
:1000F00000000A0B02090C0D0E08070304010000A2
:1001000000000000000000000000000000000000EF
:1001100000000000000000000000000012111000AC
:1001200000000000000000000000000000000000CF
:10013000000000000000303000303100303200306C
:10014000330030340030350030360030370030387E
:1001500000303900313000313100313200313300AC
:10016000313400313500313600313700313800315B
:100170003900323000323100323200323300323452
:100180000032350032360032370032380032390062
:100190003330003331003332003333003334003333
:1001A000350033360033370033380033390034300C
:1001B000003431003432003433003434003435003C
:1001C00034360034370034380034390035300035E7
:1001D00031003532003533003534003535003536E1
:1001E000003537003538003539005F000000002247
:1001F00000250028002B002E0031003400020100F1
:1002000000050108010B0100002100240027002A3D
:10021000002D003000330001010000040107010A35
:100220000105050505070508080808020202020A7B
:100230000A08080404040401010101010101010389
:1002400003030303030303040707070C0C0C0C0C44
:100250000C0C0C0202020206060606060606060B37
:100260000B0B0B0B0B0B0B010210202008081020AE
:100270004010204080020102010804020101020432
:1002800008102040808040201008040201800402F1
:100290000180402010080402010804020101020448
:1002A0000810204080010204081020408000CC0784
:1002B00011241FBECFEFD1E2DEBFCDBF00E00CBFE7
:1002C00012E0A0E0B2E0ECE4F6E100E00BBF02C017
:1002D00007900D92A231B107D9F722E0A2E1B2E076
:1002E00001C01D92A335B207E1F711E0C8E5D1E0E6
:1002F00000E005C021970109802FFE016AD6C735AD
:10030000D10780E00807B1F7A7D30C94240B78CE6F
:1003100090E0FC01E959FD4F24918F5D9D4FFC0158
:100320008491882399F090E0880F991FFC01E95F80
:10033000FD4FA591B491FC01E351FE4F859194913D
:100340008FB7F894EC91E22BEC938FBF0895AF92A6
:10035000BF92CF92DF92EF92FF920F931F93CF93B2
:10036000DF936C017B018B01040F151FEB015E0114
:10037000AE18BF08C017D10759F06991D601ED91A9
:10038000FC910190F081E02DC6011995892B79F738
:10039000C501DF91CF911F910F91FF90EF90DF90FA
:1003A000CF90BF90AF900895282F30E0F901E05131
:1003B000FF4F9491F901E959FD4F44912F5D3D4F55
:1003C000F9012491222309F434C0992309F19150B1
:1003D0009231F0F4E92FF0E08827EF50FE4F8F4F75
:1003E000F8C52202260203021A021E02080229028E
:1003F0002F02330239023D02410247024B0208023A
:100400004F0255025902809180008F7780938000BF
:10041000E22FF0E0EE0FFF1FE351FE4FA591B491E4
:100420008FB7F894EC91611148C040954E234C93DE
:100430008FBF0895809180008F7DE8CF80918000EC
:10044000877FE4CF84B58F7784BDE2CF84B58F7D7D
:10045000FBCF8091B0008F778093B000D9CF80918F
:10046000B0008F7DF9CF809190008F7780939000BE
:10047000CFCF809190008F7DF9CF80919000877FC2
:10048000F5CF8091A0008F778093A000C1CF80919D
:10049000A0008F7DF9CF8091A000877FF5CF80915C
:1004A00020018F7780932001B3CF809120018F7D31
:1004B000F9CF80912001877FF5CF4E2BB8CF3FB782
:1004C000F8948091190290911A02A0911B02B091A8
:1004D0001C0226B5A89B05C02F3F19F00196A11D4F
:1004E000B11D3FBFBA2FA92F982F8827BC01CD017E
:1004F000620F711D811D911D42E0660F771F881FDD
:10050000991F4A95D1F708958F929F92AF92BF920B
:10051000CF92DF92EF92FF924B015C01D0DF6B0133
:100520007C01CDDF6C197D098E099F09683E7340FF
:1005300081059105B0F321E0821A9108A108B10864
:1005400088EEC80E83E0D81EE11CF11C81149104D2
:10055000A104B10431F7FF90EF90DF90CF90BF90EE
:10056000AF909F908F900895089590E080E0089557
:10057000CF93DF93EC0160E08E8116DF61E08E8126
:1005800013DF60E08E8110DF8BE891E00197F1F7D7
:10059000DF91CF910895CF92DF92EF92FF920F9368
:1005A0001F93CF93DF936C017C0187E0E80EF11C71
:1005B000D0E0C0E0062F10E0B8010C2E02C0759507
:1005C00067950A94E2F76170F70181917F01ECDE93
:1005D0002196C430D10581F7C601DF91CF911F91DB
:1005E0000F91FF90EF90DF90CF90C2CFCF92DF922C
:1005F000EF92FF920F931F93CF93DF93EC01F62EB0
:10060000642F8C81D1DE8D818F3F11F060E0CCDED4
:100610000F2D10E08F8584FF23C06E0187E0C80E88
:10062000D11CF12CE12CB8010E2C02C075956795F8
:100630000A94E2F76170F60181916F01B5DEFFEF78
:10064000EF1AFF0A88E0E816F10469F7CE01DF919E
:10065000CF911F910F91FF90EF90DF90CF9088CFB7
:10066000B80184E0759567958A95E1F7CE0193DF2F
:100670006F2DCE01DF91CF911F910F91FF90EF90E1
:10068000DF90CF9088CF40E0682F8BE392E0AECF31
:10069000CF93DF93823029F490914A02986090932F
:1006A0004A0280934E0210924F0280E480935002DF
:1006B00080E18093510280E58093520280913F0255
:1006C00027DE809140028F3F09F022DE80914102B7
:1006D0001FDECBE3D2E09E012B53324080914A02D1
:1006E00084FD09C084E090E021962817390734F48E
:1006F0008E810EDEF0CF88E090E0F6CF8BE39DE0B8
:100700000197F1F760E080913F024EDE60E080915A
:1007100041024ADE809140028F3F11F060E044DEEA
:1007200080914A0284FD31C063E08BE392E033DFC5
:10073000CBE4D6E4CE010197F1F763E08BE392E0DE
:100740002ADF2197F1F763E08BE392E024DF83E572
:1007500092E00197F1F762E08BE392E01CDF809179
:100760004A02806290DF84E080934B028CE08BDF52
:1007700081E089DF8BE39FE10197F1F782E08093CD
:100780004C0286E0DF91CF917ECF80627CDF8BE4EC
:1007900096E40197F1F780914A02806274DF83E565
:1007A00092E00197F1F780914A0280626CDFD7CF27
:1007B000643008F063E090914E02691710F06FEF1B
:1007C000690FE62FF0E0E55CFD4F9489890F8068A2
:1007D0005ACF81E058DF8BE39FE10197F1F7109248
:1007E000390283E0809302021092340210921302C5
:1007F0001092120261E085E1D7DD6CE271E080E0E9
:1008000090E082DE60E085E1CFCD41E0EFDE81E087
:1008100090E008950F931F93CF93DF93EC018B012A
:10082000FC01649141E08BE392E0E0DE01301105D0
:1008300059F0FE013196649141E08BE392E0DF9143
:10084000CF911F910F91D2CEDF91CF911F910F9138
:100850000895682F83E0ACDF61E070E08AEE91E0FC
:10086000D9DF61E070E08AEE91E0D4DF6AE38BE3E8
:1008700092E0CBDF61E070E08AEE91E0CBDF61E0F7
:1008800070E08AEE91E0C6DF6AE38BE392E0BDDFC1
:1008900061E070E08AEE91E0BDDF61E070E08AEE39
:1008A00091E0B8CF1F920F920FB60F9211242F93A1
:1008B0003F938F939F93AF93BF9380911502909135
:1008C0001602A0911702B09118023091140223E091
:1008D000230F2D3758F50196A11DB11D2093140249
:1008E0008093150290931602A0931702B0931802FA
:1008F0008091190290911A02A0911B02B0911C02E2
:100900000196A11DB11D8093190290931A02A09324
:100910001B02B0931C02BF91AF919F918F913F91A9
:100920002F910F900FBE0F901F90189526E8230F60
:100930000296A11DB11DD2CF1F920F920FB60F923A
:1009400011240BB60F922F933F934F935F936F93A6
:100950007F938F939F93AF93BF93EF93FF93809178
:100960002102882339F0809129028823C9F181501E
:100970008093290280912002882341F080912202F5
:10098000882309F44BC08150809322028091120287
:1009900090911302009789F001969093130280932F
:1009A000120261E080FF07C04E9721F410921302FB
:1009B0001092120260E085E1F7DCFF91EF91BF91A8
:1009C000AF919F918F917F916F915F914F913F91E7
:1009D0002F910F900BBE0F900FBE0F901F90189588
:1009E0008CE38093290280912A02882321F0815090
:1009F00080932A02BFCF80912B02882321F081505F
:100A000080932B02B7CF1092210210923A0281E01C
:100A100090E09093130280931202ACCF8CE380930A
:100A2000220280912302882321F0815080932302A7
:100A3000ADCF80912402882321F08150809324023D
:100A4000A5CF109220021092380281E090E090939E
:100A50001302809312029ACF789484B5826084BD89
:100A600084B5816084BD85B5826085BD85B58160B2
:100A700085BD80916E00816080936E001092810030
:100A800080918100826080938100809181008160EB
:100A900080938100809180008160809380008091AC
:100AA000B10084608093B1008091B0008160809338
:100AB000B0008091910082608093910080919100BC
:100AC000816080939100809190008160809390007C
:100AD0008091A10082608093A1008091A10081603B
:100AE0008093A1008091A00081608093A0008091FC
:100AF0002101826080932101809121018160809396
:100B000021018091200181608093200180917A00F1
:100B1000846080937A0080917A00826080937A006A
:100B200080917A00816080937A0080917A00806859
:100B300080937A001092C100F894109220018DE009
:100B40008093210182E08093730088E09DE390937D
:100B50002901809328018FE087B980EF88B982E06E
:100B600097DD789485E1D4DB60E085E11DDC1092AF
:100B70001F02CDE1D2E075E2E72E72E0F72E0FE022
:100B800012E0E7E2CE2EE2E0DE2EFCE2AF2EF2E053
:100B9000BF2EA0E08A2EA0E09A2E35E4632E44E416
:100BA000442E53E4352E62E4262E80913A028823A7
:100BB00009F493C060E083E0FBDD80912B0223E029
:100BC000722E879DC001112462E070E08A5C9E4F06
:100BD00021DE6AE38BE392E018DE80912A02879D92
:100BE000C001112462E070E08A5C9E4F13DE6AE36C
:100BF0008BE392E00ADE80912902879DC0011124D7
:100C000062E070E08A5C9E4F05DE809138028823A6
:100C100009F46BC061E083E0CBDD8091240293E0B6
:100C2000792E879DC001112462E070E08A5C9E4F9E
:100C3000F1DD6AE38BE392E0E8DD80912302879D9A
:100C4000C001112462E070E08A5C9E4FE3DD6AE33C
:100C50008BE392E0DADD80912202879DC0011124AE
:100C600062E070E08A5C9E4FD5DD7090010221E069
:100C700086B17212B5C0803F09F47BC062E370E0B8
:100C800080E090E041DC10920102709200023EEFA1
:100C900038B998B186B1981314C08DEF88B998B15E
:100CA00086B198130EC08BEF88B998B186B19813AE
:100CB00008C087EF88B998B186B1981302C0109226
:100CC000000280910002813009F051C086B18E3E51
:100CD000A1F481E38093360247C0809139028130CC
:100CE00009F493CF80E0B5DD90CF80913902823056
:100CF00009F4BBCF81E0ADDDB8CF86B18E3D11F4F4
:100D000082E3E8CF86B18E3B11F483E3E3CF86B173
:100D10008D3E11F484E3DECF86B18D3D11F485E381
:100D2000D9CF86B18D3B11F486E3D4CF86B18B3E0B
:100D300011F487E3CFCF86B18B3D11F488E3CACF9E
:100D400086B18B3B11F489E3C5CF86B1873D11F4A1
:100D500080E3C0CF86B18E3711F481E4BBCF86B17A
:100D60008D3739F52092360281E08093370220EFEB
:100D700028B9809137028823A9F061E085E114DB6E
:100D800010923702709036027092350264E670E07D
:100D900080E090E0B9DB60E085E106DB36E47312C9
:100DA0002AC017DD8114910409F4FFCE0E940000CF
:100DB000F4CE86B18B3719F430923602D5CF86B196
:100DC000873719F440923602CFCF86B1873B19F4AA
:100DD00060923602C9CF86B1873E31F686E47ACF7B
:100DE000803F39F668EC70E080E090E08DDB81E0D8
:100DF00080930102BECF609139026150623008F0E9
:100E00008EC0E091340281E08E0F80933402F0E0D6
:100E1000E25DFD4F708280910202853011F08830D2
:100E200019F48F5F8093020280910202552453943B
:100E3000580E50920202BCDC672D8BE392E0E5DC99
:100E40008AE0851510F46092350280913502853470
:100E500009F0A8CF80912E0280931D0280912F026D
:100E600080931E02FF92EF921F930F93DF93CF9315
:100E7000B8D08091300280931D028091310280931E
:100E80001E02DF92CF921F930F93DF93CF93A9D0CF
:100E90008091320280931D028091330280931E0262
:100EA000BF92AF921F930F93DF93CF939AD080910D
:100EB0002502909126022DB73EB72E5E3F4F0FB60A
:100EC000F8943EBF0FBE2DBF893191050CF069CF5C
:100ED00020912702309128022D3331050CF061CF8B
:100EE00040912C0250912D024D3351050CF059CFF9
:100EF00060913902613049F44093290220932A021B
:100F000080932B0260933A024CCF409322022093AD
:100F100023028093240281E08093380242CF31E49F
:100F2000731206C081E08093390280E092DC3ACFF0
:100F300082E4781205C082E08093390281E0F6CF26
:100F400023E4721213C080912102882359F0109279
:100F50003A021092290210922A0210922B02109249
:100F6000210220CF81E0809321021CCF34E4731250
:100F700019CF80912002882359F0109238021092E4
:100F800022021092230210922402109220020ACF11
:100F900081E08093200206CFEBE3F2E0138212821D
:100FA00087E092E09183808381E3848380E385837B
:100FB0008FE286838EE287838DE280878CE2818751
:100FC0008BE282871386148615861686178681E043
:100FD0005FCBEE0FFF1F881F8BBF0790F691E02DB0
:100FE0001994CF93DF93CDB7DEB72E970FB6F89451
:100FF000DEBF0FBECDBF85E08C838C899D899A832F
:101000008983AE01485E5F4F6E897F89CE0101966C
:10101000A6D12E960FB6F894DEBF0FBECDBFDF91DE
:10102000CF91089520FD09C0FC0123FD05C022FFDA
:1010300002C07383628351834083089544FD17C0C7
:1010400046FD1DC0DB01FC01AA0FBB1FEE1FFF1FE9
:101050001094D1F76A0F7B1F8E1F9F1F660F771F9B
:10106000881F991F620F711D811D911D089533E026
:10107000660F771F881F991F3150D1F7F3CF34E0E7
:10108000F7CF0F931F93CF93DF938C01C80185D2C5
:10109000EC0197FD06C06ED2892BC1F7B801CE01D5
:1010A000B8D2CE01DF91CF911F910F9108958F9209
:1010B0009F92AF92BF92EF92FF920F931F93CF93A5
:1010C000DF938C01D62F7A01B22E67D29C01332791
:1010D0002B32310529F02D323105A1F46894B7F88F
:1010E000D15061F480E0DF91CF911F910F91FF907B
:1010F000EF90BF90AF909F908F900895C8014DD210
:1011000097FDF0CFCB2DCD7F2B2D2073E9F48033CD
:10111000D9F4AA24AA94AD0E79F0C8013ED297FD65
:101120000BC0282F2F7D283559F4C264D25021F0EE
:10113000C80133D297FF08C0812C912C54011AC0EA
:10114000B6FE29C0C260DA2D812C912C540120ED0D
:10115000280F283018F1C4FD09C02A30F8F0C6FF66
:1011600005C02F7D3FEE320F3630B8F0B80151D2B6
:10117000C1FFB8CFC7FF08C0B094A09490948094EA
:10118000811C911CA11CB11C2C2FB501A401C7010D
:1011900049DF81E0A8CFC261D6CF27504C2FC501CF
:1011A000B4014CDF4B015C01C260D15019F3C8019E
:1011B000F4D197FFCCCFDCCF7F928F929F92AF92EA
:1011C000BF92CF92DF92EF92FF920F931F93CF9334
:1011D000DF93CDB7DEB7A0970FB6F894DEBF0FBE92
:1011E000CDBF5C01962E7A01CE0101966C0180E2A2
:1011F000F60111928A95E9F7F501B381890130E092
:1012000020E0712C812CA0E041E050E0F801B3FD1A
:101210008591B3FF8191982F8F01811117C010E044
:1012200000E0C801A0960FB6F894DEBF0FBECDBF98
:10123000DF91CF911F910F91FF90EF90DF90CF90B2
:10124000BF90AF909F908F907F9008958E3519F446
:101250002115310541F1A21713064CF48D3549F1E2
:101260008D3229F4811006C0882483941DC0882003
:1012700009F462C0E92FE695E695E695EC0DFD2DA3
:10128000F11D892F8770BA0101C0660F8A95EAF7B0
:101290008081682B6083791651F0971510F49F5F59
:1012A000E9CF9150E7CFA1E02F5F3F4FAFCF812C27
:1012B000FBCF882019F08E8180628E83AA2359F09B
:1012C000F6019E012F5D3F4F80818095808331968E
:1012D000E217F307C9F788248394C5015ED197FD0F
:1012E00015C0E82FE695E695E695EC0DFD2DF11D70
:1012F000208130E0AC014770552702C03595279515
:101300004A95E2F720FD05C0B50183D1882069F038
:1013100086CFE114F10429F0F7018083C70101961B
:101320007C019A94812C9110D8CFE114F10409F436
:1013300078CFF701108275CFE82FE695E695E69510
:10134000EC0DFD2DF11D982F9770BA0101C0660FAD
:101350009A95EAF79081692B6083782EA5CF5F92EA
:101360006F927F928F929F92AF92BF92CF92DF92B5
:10137000EF92FF920F931F93CF93DF936C01EB01DA
:101380005A01FC0117821682512CF601E380FE01FE
:10139000E3FC8591E3FE8191182FEF018823C9F0CA
:1013A00090E0E8D0892B19F0C6016BDEEECF153244
:1013B00041F4FE01E3FC1591E3FE1191EF011532BA
:1013C00059F4C601EAD097FD88C01817F1F2B601AA
:1013D00020D1852D90E085C000E01A3231F4E3FC85
:1013E0001591E3FE1191EF0101E0F12C20ED210FA9
:1013F0002A3038F101FF34C0FF2059F3183699F133
:101400001C3609F43AC0112321F3612F70E084EEF9
:1014100090E0B8D0892BE9F2912C812C00FD06C018
:10142000F50180809180C50102965C011E3669F548
:10143000F6014681578170E060E0202FC401F2DDA3
:10144000A4CF02606F2D70E090E080E040E2F6DD16
:10145000F62EFE01E3FC1591E3FE1191EF01C6CFDC
:10146000FF24FA94CBCFFE01E3FC1591E3FE11912A
:10147000EF01183609F0C7CF08600460FE01E3FCF5
:101480001591E3FE1191EF01BECF1336B9F401FDC2
:1014900002C0FF24F394C60180D097FD1EC08114C2
:1014A000910429F0F4018083C40101964C01FA945F
:1014B000F110F1CF00FD69CF539467CF1B3509F5CB
:1014C0009E01A4016F2DC60177DEEC01892B91F7F7
:1014D000F6018381807309F47CCF8FEF9FEF511069
:1014E00078CFDF91CF911F910F91FF90EF90DF9018
:1014F000CF90BF90AF909F908F907F906F905F90B4
:101500000895C601BEDD97FDE8CF1F3689F130F49E
:10151000143641F0193639F0006405C01337B1F0C4
:101520001537D1F70062202FA4016F2DC601BFDD52
:101530008111C0CFCDCF8114910429F0F4016082D4
:10154000C40101964C01FA94FF2059F0C60125D040
:101550003C0197FD06C00ED0892B69F3B601C3018B
:1015600058D08114910409F4A5CFF4011082A2CFC0
:101570000061D9CF911165C0803219F08950855032
:10158000D0F70895FC010590061621F00020D9F748
:10159000C00108953197CF010895CF93DF93EC01F7
:1015A0002B8120FF1AC026FF0CC02F7B2B838E813E
:1015B0009F8101969F838E838A8190E0DF91CF91F6
:1015C000089522FF18C0E881F9818081082E000C5F
:1015D000990B009729F420622B838FEF9FEFEECFBA
:1015E0003196F983E8832E813F812F5F3F4F3F8300
:1015F0002E839927E3CFEA85FB85199597FFF3CFD3
:101600002B81019621F080E2822B8B83E6CF80E153
:10161000FBCFFB01238120FF11C026FD0FC08F3FB0
:10162000980771F082832F7D206423832681378180
:101630002150310937832683992708958FEF9FEF33
:0C1640000895992788270895F894FFCF9B
:10164C00010103000000000504A701B502B4022546
:02165C00640028
:00000001FF
