:020000020000FC
:020000005EC0E0
:1000BC0023C00FEF0DBF01E20EBF0FEF00BB00938B
:1000CC000701002701BB0093080107B9439A459A21
:1000DC003A9A4298F8940027009320010DE000937F
:1000EC00210102E00093730001E20093290101E970
:1000FC0000932801789428C000270093080101BBC5
:10010C0000FC03D001FC10D018953395353041F02C
:10011C000027052B062B009308015695660F0895B2
:10012C000EEF0022552708954395493049F071BBD5
:10013C00769576950027701709F0089570E4089568
:10014C000DEF002277270895339B07C0359B0BC01A
:10015C00FBCF429A0ED04298F7CF01E0002A33270A
:10016C0058E060E1F6CF02E0002A442700E8702F47
:10017C00F0CF00E014EC29E0015010402040E1F7F2
:02018C000895D4
:00000001FF
