:100000000C9463000C948B000C948B000C948B006C
:100010000C948B000C948B000C948B000C948B0034
:100020000C948B000C948B000C948B000C948B0024
:100030000C948B000C948B000C948B000C948B0014
:100040000C9424030C948B000C94F2020C94CC02BC
:100050000C948B000C948B000C948B000C948B00F4
:100060000C948B000C948B006364696E6F707375D5
:1000700078585B0000000000240027002A000000E0
:100080000000250028002B000404040404040404D8
:100090000202020202020303030303030102040833
:1000A00010204080010204081020010204081020E2
:1000B0000000000800020100000304070000000027
:1000C00000000000780511241FBECFEFD8E0DEBF8E
:1000D000CDBF11E0A0E0B1E0EEE8F9E102C005908B
:1000E0000D92AA33B107D9F721E0AAE3B1E001C02C
:1000F0001D92A83EB207E1F710E0C3E6D0E004C0CD
:100100002197FE010E94A505C236D107C9F70E94BA
:100110006E030C94C50C0C940000E2EBF0E024910B
:10012000EEE9F0E09491EAE8F0E0E491EE23C9F022
:10013000222339F0233001F1A8F4213019F12230C3
:1001400029F1F0E0EE0FFF1FE258FF4FA591B491A7
:100150002FB7F894EC91811126C090959E239C9323
:100160002FBF08952730A9F02830C9F0243049F76F
:10017000209180002F7D03C0209180002F77209355
:100180008000DFCF24B52F7724BDDBCF24B52F7DB2
:10019000FBCF2091B0002F772093B000D2CF2091D9
:1001A000B0002F7DF9CF9E2BDACF4F925F926F92E6
:1001B0007F928F929F92AF92BF92CF92DF92EF92F7
:1001C000FF921F93CF93DF93CDB7DEB7D4500FB616
:1001D000F894DEBF0FBECDBFFE013196412C512CED
:1001E00032019F0173016201A8E0B0E046015701AE
:1001F00010E881229924AA24BB24CC0CDD1CEE1C1F
:10020000FF1C89288A288B2809F0C094119771F760
:10021000DD24EE24FF24C192D192E192F192AFEF5E
:100220004A1A5A0A6A0A7A0A411411E0510661040C
:100230007104C1F6FC01C12CD12C7601BFE24B2E1A
:10024000512C612C712CC416D506E606F706D1F0A8
:100250008191082E000C990BAA0BBB0B84259525C8
:10026000880F991F880F991FD901A80FB91F8C916A
:10027000482E512C712C612C8FEFC81AD80AE80A2D
:10028000F80AE1CFC301B2016095DC5F0FB6F894C4
:10029000DEBF0FBECDBFDF91CF911F91FF90EF90DA
:1002A000DF90CF90BF90AF909F908F907F906F9096
:1002B0005F904F900895AF92BF92CF92DF92EF92EE
:1002C000FF920F931F93CF93DF936C017B018B0100
:1002D000040F151FEB015E01AE18BF08C017D10750
:1002E00059F06991D601ED91FC910190F081E02DDA
:1002F000C6010995892B79F7C501DF91CF911F912F
:100300000F91FF90EF90DF90CF90BF90AF90089546
:10031000FC01538D448D252F30E0842F90E0821B0B
:10032000930B541710F0CF96089501970895FC0190
:10033000918D828D981761F0A28DAE0FBF2FB11DE8
:100340005D968C91928D9F5F9F73928F90E0089540
:100350008FEF9FEF0895FC01918D828D981731F0FA
:10036000828DE80FF11D858D90E008958FEF9FEF4E
:100370000895FC01918D228D892F90E0805C9F4F24
:10038000821B91098F739927089587E491E00E9459
:10039000B90121E0892B09F420E0822F089580E043
:1003A00090E0892B29F00E94C50181110C94000076
:1003B0000895FC01A48DA80FB92FB11DA35ABF4FFA
:1003C0002C91848D90E001968F739927848FA68954
:1003D000B7892C93A089B1898C91837080648C93A8
:1003E000938D848D981306C00288F389E02D808157
:1003F0008F7D80830895EF92FF920F931F93CF9389
:10040000DF93EC0181E0888F9B8D8C8D98131AC04F
:10041000E889F989808185FF15C09FB7F894EE8936
:10042000FF896083E889F989808183708064808393
:100430009FBF81E090E0DF91CF911F910F91FF90DE
:10044000EF900895F62E0B8D10E00F5F1F4F0F7386
:100450001127E02E8C8D8E110CC00FB607FCFACF41
:10046000E889F989808185FFF5CFCE010E94D90105
:10047000F1CFEB8DEC0FFD2FF11DE35AFF4FF08212
:100480009FB7F8940B8FEA89FB8980818062CFCF78
:10049000CF93DF93EC01888D8823B9F0AA89BB89BB
:1004A000E889F9898C9185FD03C0808186FD0DC0A6
:1004B0000FB607FCF7CF8C9185FFF2CF808185FFC7
:1004C000EDCFCE010E94D901E9CFDF91CF91089500
:1004D0003FB7F89480913F0190914001A091410174
:1004E000B091420126B5A89B05C02F3F19F0019697
:1004F000A11DB11D3FBFBA2FA92F982F8827BC017E
:10050000CD01620F711D811D911D42E0660F771FA5
:10051000881F991F4A95D1F708958F929F92AF92A5
:10052000BF92CF92DF92EF92FF924B015C010E944B
:1005300068026B017C010E9468026C197D098E09BA
:100540009F09683E734081059105A8F321E0821A56
:100550009108A108B10888EEC80E83E0D81EE11CFE
:10056000F11C81149104A104B10429F7FF90EF90CC
:10057000DF90CF90BF90AF909F908F900895FC0137
:1005800001900020E9F73197AF01481B590BBC01DE
:1005900087E491E00C945B011F920F920FB60F92CB
:1005A00011242F933F934F935F936F937F938F9378
:1005B0009F93AF93BF93EF93FF9387E491E00E94E3
:1005C000D901FF91EF91BF91AF919F918F917F9151
:1005D0006F915F914F913F912F910F900FBE0F90B0
:1005E0001F9018951F920F920FB60F9211242F9300
:1005F0008F939F93EF93FF93E0915701F0915801F0
:100600008081E0915D01F0915E0182FD1BC09081CF
:10061000809160018F5F8F7320916101821741F09B
:10062000E0916001F0E0E95BFE4F958F80936001FF
:10063000FF91EF919F918F912F910F900FBE0F908F
:100640001F9018958081F4CF1F920F920FB60F92D2
:1006500011242F933F938F939F93AF93BF938091D8
:100660003B0190913C01A0913D01B0913E01309140
:100670003A0123E0230F2D3758F50196A11DB11D36
:1006800020933A0180933B0190933C01A0933D015C
:10069000B0933E0180913F0190914001A0914101B2
:1006A000B09142010196A11DB11D80933F0190932D
:1006B0004001A0934101B0934201BF91AF919F913E
:1006C0008F913F912F910F900FBE0F901F90189513
:1006D00026E8230F0296A11DB11DD2CFCF93DF9341
:1006E000CDB7DEB76F970FB6F894DEBF0FBECDBFA4
:1006F000789484B5826084BD84B5816084BD85B5FD
:10070000826085BD85B5816085BD80916E00816008
:1007100080936E00109281008091810082608093AE
:1007200081008091810081608093810080918000B0
:100730008160809380008091B10084608093B100DB
:100740008091B00081608093B00080917A008460D5
:1007500080937A0080917A00826080937A00809101
:100760007A00816080937A0080917A00806880931B
:100770007A001092C100E0915701F091580182E097
:100780008083E0915301F09154011082E091550172
:10079000F09156018AE8808310925F01E0915B013D
:1007A000F0915C0186E08083E0915901F0915A015B
:1007B000808180618083E0915901F0915A018081AC
:1007C00088608083E0915901F0915A0180818068AE
:1007D0008083E0915901F0915A0180818F7D80835F
:1007E000EEE9F0E02491EAE8F0E08491882399F0C2
:1007F00090E0880F991FFC01EC58FF4FA591B49130
:10080000FC01E258FF4F859194918FB7F894EC91D9
:10081000E22BEC938FBF80E00E948D00CE01019609
:100820007C0198E1492E91E0592E8E010B5E1F4FFD
:1008300025E1322E30E2C32E31E0D32E80E0682E47
:1008400080E0782E109246011092450187E491E0F5
:100850000E94B901892B09F439C182E390E00E941A
:10086000AB05909344018093430165E070E080E024
:1008700090E00E948D0287E491E00E94B901A0906F
:100880004501B09046018090430190904401892B2E
:10089000A9F187E491E00E949701F401EA0DFB1DA4
:1008A0008B3319F510821092460110924501FF9288
:1008B000EF925F924F929F928F920E94FC060F9050
:1008C0000F900F900F900F900F9089819A8145970C
:1008D00091F287E491E00E94B901892B09F4F6C0F6
:1008E00087E491E00E949701F4CF9FEFA91AB90A1B
:1008F000B0924601A09245018083BDCF1A141B041B
:100900000CF0E4C0C5010196909346018093450127
:10091000F401EA0DFB1D1082181619060CF0D6C062
:100920006BE171E0C4010E94D006892B09F0CEC0B2
:100930008BE0EEE2F1E0D80101900D928A95E1F7AB
:1009400081E00E948D004AE050E060E070E0C80164
:100950000E94D500A62E972E882E292E6CE370E0DB
:1009600080E090E00E948D021F930F932F928F9250
:100970009F92AF921F923F921F92BB24B394BF925B
:10098000DF92CF92FF92EF920E94D906C7010E9498
:10099000BF0262E370E080E090E00E948D028D89EA
:1009A00090E289278D8B1F930F932F928F929F92A6
:1009B000AF921F923F921F92BF92DF92CF92FF920F
:1009C000EF920E94D906C7010E94BF0262E370E065
:1009D00080E090E00E948D028D8990E289278D8BC6
:1009E000F80101900020E9F73297808190E1892792
:1009F00080831F930F932F928F929F92AF921F929B
:100A00003F921F92BF92DF92CF92FF92EF920E948D
:100A1000D9060FB6F894DEBF0FBECDBFC7010E9446
:100A2000BF0262E370E080E090E00E948D02F80176
:100A300001900020E9F73297808190E18927808337
:100A4000888D98E88927888F1F930F932F928F9214
:100A50009F92AF921F923F921F92BF92DF92CF92CE
:100A6000FF92EF920E94D906C7010E94BF0262E383
:100A700070E080E090E00E948D02888D98E88927E0
:100A8000888F8C8D9EE089278C8F1F930F932F92D8
:100A90008F929F92AF921F923F921F92BF92DF92CE
:100AA000CF92FF92EF920E94D906C7010E94BF0227
:100AB0006CE370E080E090E00E948D0280E00E9494
:100AC0008D000FB6F894DEBF0FBECDBF80914301FD
:100AD000909144010E9447066114710409F4B2CE5A
:100AE0000E94C501882309F4ADCE0E940000A6CE65
:100AF000E7E4F1E01382128288EE93E0A0E0B0E038
:100B000084839583A683B7838AE091E09183808371
:100B100085EC90E09587848784EC90E097878687C2
:100B200080EC90E0918B808B81EC90E0938B828BBA
:100B300082EC90E0958B848B86EC90E0978B868B93
:100B4000118E128E138E148E0895EE0FFF1F0590D6
:100B5000F491E02D09940F931F93CF93DF9382308C
:100B6000910510F482E090E0E091E601F091E70158
:100B700030E020E0B0E0A0E0309799F42115310595
:100B800009F44AC0281B390B24303105D8F58A8175
:100B90009B816115710589F1FB0193838283FE01BD
:100BA00011C0408151810281138148175907E0F03B
:100BB0004817590799F4109761F012960C93129701
:100BC00013961C933296CF01DF91CF911F910F9115
:100BD00008950093E6011093E701F4CF2115310544
:100BE00051F04217530738F0A901DB019A01BD010A
:100BF000DF01F801C1CFEF01F9CF9093E7018093B6
:100C0000E601CDCFFE01E20FF31F819391932250B5
:100C1000310939832883D7CF2091E4013091E50150
:100C2000232B41F420910201309103013093E5011F
:100C30002093E4012091000130910101211531053B
:100C400041F42DB73EB74091040150910501241B9A
:100C5000350BE091E401F091E501E217F307A0F410
:100C60002E1B3F0B2817390778F0AC014E5F5F4F02
:100C70002417350748F04E0F5F1F5093E50140934E
:100C8000E401819391939FCFF0E0E0E09CCFCF937C
:100C9000DF930097E9F0FC01329713821282A09152
:100CA000E601B091E701ED0130E020E01097A1F4FA
:100CB00020813181820F931F2091E4013091E50161
:100CC0002817390709F061C0F093E501E093E401CA
:100CD000DF91CF910895EA01CE17DF07E8F54A8149
:100CE0005B819E0141155105B1F7E901FB83EA8360
:100CF00049915991C40FD51FEC17FD0761F480810C
:100D000091810296840F951FE901998388838281DE
:100D100093819B838A83F0E0E0E012968D919C9111
:100D200013970097B9F52D913C911197CD0102963B
:100D3000820F931F2091E4013091E50128173907B4
:100D400039F6309751F51092E7011092E601B09311
:100D5000E501A093E401BCCFD383C28340815181DC
:100D6000840F951FC817D90761F44E5F5F4F8881C4
:100D70009981480F591F518340838A819B819383B6
:100D800082832115310509F0B0CFF093E701E0939C
:100D9000E6019ECFFD01DC01C0CF13821282D7CFC6
:100DA000FB01DC018D91019080190110D9F3990BA1
:100DB0000895AEE0B0E0EFEDF6E00C949C0C0D89E8
:100DC0001E8986E08C831A8309838FEF9FE79E83B9
:100DD0008D83AE01475E5F4F6F89788DCE0101969E
:100DE0000E9415072F813885020F131FF80110820A
:100DF0002E96E4E00C94B80CAEE0B0E0E2E0F7E050
:100E00000C949E0C85E08C838B899C899A838983C2
:100E1000AE01495E5F4F6D897E89CE0101960E94C9
:100E20007A0A2E96E2E00C94BA0CABE0B0E0EBE16B
:100E3000F7E00C948E0C7C013B018A01FC011782C7
:100E40001682838181FFC8C1CE0101965C01F70142
:100E50009381F30193FD859193FF81913F01882355
:100E600009F453C1853239F493FD859193FF819143
:100E70003F01853229F4B70190E00E94E50BE7CFEE
:100E8000912C212C312CFFE1F31538F08B3211F12C
:100E900090F4803209F1833229F137FC3CC020ED17
:100EA000280F2A3050F536FE20C08AE0989E200D8B
:100EB0001124922E06C08D3291F0803371F7689420
:100EC00030F8F30193FD859193FF81913F018111EA
:100ED000DACF21C0689431F8689432F8F2CF689480
:100EE00033F8EFCF689434F8ECCFEAE02E9E200D73
:100EF0001124222E689435F8E4CF8E3229F436FC82
:100F000004C1689436F8DDCF8C3619F4689437F84C
:100F1000D8CF8836B1F2982F9F7D95549330E0F06A
:100F20008336A1F18337C1F1833509F063C028010D
:100F3000F2E04F0E511CF801C080D180692D70E0A5
:100F400036FC02C06FEF7FEFC6010E94930B4C018D
:100F5000689437F882010AC00C5F1F4FFFE3F983E2
:100F600088248394912C6501E89437F833FE2DC0D2
:100F7000522C8114910471F5552009F468CFB70102
:100F800080E290E00E94E50B5A94F6CFF801808150
:100F900089830E5F1F4FE4CF2801F2E04F0E511CF2
:100FA000F801C080D180692D70E036FC02C06FEF7F
:100FB0007FEFC6010E949E0B4C018201D5CFB70185
:100FC00080E290E00E94E50B2A942814190409F0AD
:100FD000B0F7CECFF60137FC859137FE81916F01D6
:100FE000B70190E00E94E50B51105A94F1E08F1A7E
:100FF0009108BFCF843619F0893609F077C0F8011F
:1010000037FE6BC060817181828193810C5F1F4FBD
:10101000F32DFF763F2E97FF09C090958095709530
:1010200061957F4F8F4F9F4F689437F82AE030E0EB
:10103000A5010E942D0CC82ECA188C2C432C36FEFC
:101040000CC0E89440F8C91440F434FE05C032FCEA
:1010500003C0F32DFE7E4F2E892C44FE95C0FE0169
:10106000EC0DF11D8081803309F087C0242D297E8D
:10107000422E842D8870582E43FC95C040FE8FC0B0
:101080009C2C821418F42C0C922C981844FE91C0BD
:10109000B70180E390E00E94E50B42FE09C088E7BB
:1010A00090E041FE02C088E590E0B7010E94E50BA8
:1010B000C91408F48AC0CA94D12C9FEFC91AD90A5E
:1010C000CA0CDB1CF60182916F01B70190E00E940F
:1010D000E50BAC14BD04B1F74FCF60817181072ED1
:1010E000000C880B990B0E5F1F4F92CFD32CE89406
:1010F000D4F82AE030E0853739F1232D297FD22E2C
:101100008F3601F148F48835A9F0F701868197817F
:101110002B96E2E10C94AA0C803749F08837A9F7A6
:10112000D4FE02C06894D2F820E130E00DC068948B
:10113000D4F8F6CF34FE03C0822F8660D82E20E18B
:1011400032E002C028E030E0F801D7FE0FC0608135
:101150007181828193810C5F1F4FA5010E942D0C2C
:10116000C82ECA183D2CE89437F867CF608171818A
:1011700090E080E00E5F1F4FF0CF42FC02C08394EE
:1011800078CF8394839475CF842D867809F471CFBA
:10119000F6CFB70180E290E00E94E50B83948214C1
:1011A000C0F3512C73CF522C5818821408F46ECF10
:1011B000F8CF842D867809F47BCF8BE241FE80E264
:1011C00047FC8DE2B70190E071CFB70180E390E07A
:1011D0000E94E50B9A946CCF8FEF9FEF99CF20FD83
:1011E00009C0FC0123FD05C022FF02C07383628396
:1011F00051834083089544FD17C046FD1DC0DB01A7
:10120000FC01AA0FBB1FEE1FFF1F1094D1F76A0F3E
:101210007B1F8E1F9F1F660F771F881F991F620FEE
:10122000711D811D911D089533E0660F771F881F82
:10123000991F3150D1F7F3CF34E0F7CF0F931F93BD
:10124000CF93DF938C01C8010E94A90BEC0197FD9D
:1012500008C00E947F0B892BB1F7B801CE010E9414
:10126000150CCE01DF91CF911F910F9108958F92B0
:101270009F92AF92BF92EF92FF920F931F93CF93E3
:10128000DF938C01D62F7A01B22E0E94A90B9C010C
:1012900033272B32310529F02D323105A9F468941A
:1012A000B7F8D15061F480E0DF91CF911F910F9199
:1012B000FF90EF90BF90AF909F908F900895C801DE
:1012C0000E94A90B97FDEFCFCB2DCD7F2B2D207347
:1012D000F9F48033E9F4AA24AA94AD0E89F0C80188
:1012E0000E94A90B97FD0CC0282F2F7D283561F493
:1012F000C264D25029F0C8010E94A90B97FF08C010
:10130000812C912C54011BC0B6FE2BC0C260DA2D7B
:10131000812C912C540120ED280F283028F1C4FD98
:1013200009C02A3008F1C6FF05C02F7D3FEE320FFD
:101330003630C8F0B8010E94150CC1FFB4CFC7FF0A
:1013400008C0B094A09490948094811C911CA11C1E
:10135000B11C2C2FB501A401C7010E94EF0881E048
:10136000A3CFC261D4CF27504C2FC501B4010E9436
:10137000FB084B015C01C260D15009F3C8010E9417
:10138000A90B97FFC8CFD9CFA0E2B0E0EAECF9E013
:101390000C94930C5C01962E7A01CE0101966C019F
:1013A00080E2F60111928A95E9F7F501B38189018E
:1013B00030E020E0712C812CA0E041E050E0F80109
:1013C000B3FD8591B3FF8191982F8F01811107C0E3
:1013D00010E000E0C801A096EDE00C94AF0C8E3553
:1013E00019F42115310541F1A21713064CF48D357E
:1013F00049F18D3229F4811006C0882483941DC0E0
:10140000882009F464C0E92FE695E695E695EC0D91
:10141000FD2DF11D892F8770BA0101C0660F8A95D5
:10142000EAF78081682B6083791651F0971510F4E4
:101430009F5FE9CF9150E7CFA1E02F5F3F4FBFCF34
:10144000812CFBCF882019F08E8180628E83AA23A5
:1014500059F0F6019E012F5D3F4F8081809580837A
:101460003196E217F307C9F788248394C5010E94D7
:10147000A90B97FD16C0E82FE695E695E695EC0DCD
:10148000FD2DF11D208130E0AC014770552702C0D1
:10149000359527954A95E2F720FD06C0B5010E94D3
:1014A000150C882069F094CFE114F10429F0F701BC
:1014B0008083C70101967C019A94812C9110D6CF2C
:1014C000E114F10409F486CFF701108283CFE82FED
:1014D000E695E695E695EC0DFD2DF11D982F97709C
:1014E000BA0101C0660F9A95EAF79081692B608373
:1014F000782EA3CFB0E0A0E0E0E8FAE00C94910CE5
:101500006C01EB015A01FC0117821682512CF60185
:10151000E380FE01E3FC8591E3FE8191182FEF014A
:101520008823E9F090E00E947F0B892B21F0C6010F
:101530000E941E09ECCF153241F4FE01E3FC159127
:10154000E3FE1191EF01153269F4C6010E94A90B67
:1015500097FD8EC01817D9F2B6010E94150C852D83
:1015600090E08AC000E01A3231F4E3FC1591E3FE0A
:101570001191EF0101E0F12C20ED210F2A3048F10B
:1015800001FF37C0FF2059F31836B1F11C3609F4BA
:101590003DC0112321F3612F70E088E690E00E94A6
:1015A000880B892BE1F2912C812C00FD06C0F501FE
:1015B00080809180C50102965C011E3679F5F601A6
:1015C0004681578170E060E0202FC4010E94EF083F
:1015D0009ECF02606F2D70E090E080E040E20E94BC
:1015E000FB08F62EFE01E3FC1591E3FE1191EF01DD
:1015F000C3CFFF24FA94C8CFFE01E3FC1591E3FEAC
:101600001191EF01183609F0C4CF08600460FE01A3
:10161000E3FC1591E3FE1191EF01BBCF1336C1F44A
:1016200001FD02C0FF24F394C6010E94A90B97FD9F
:101630001FC08114910429F0F4018083C401019634
:101640004C01FA94F110F0CF00FD61CF53945FCFBD
:101650001B35B9F49E01A4016F2DC6010E94C40977
:10166000EC01892B89F7F6018381807309F477CF28
:101670008FEF9FEF511073CFCDB7DEB7EFE00C9433
:10168000AD0CC6010E941E0997FDF2CF1F36A9F1CD
:1016900030F4143641F0193639F0006405C01337C0
:1016A000B9F01537D1F70062202FA4016F2DC601C4
:1016B0000E9437098111C8CFD6CF8114910429F037
:1016C000F4016082C40101964C01FA94FF2071F08C
:1016D000C6010E94A90B3C0197FD08C00E947F0B28
:1016E000892B59F3B601C3010E94150C8114910492
:1016F00009F4AACFF4011082A7CF0061D5CF9111D0
:101700000C948B0C803219F089508550C8F70895DD
:10171000FC010590061621F00020D9F7C0010895BC
:101720003197CF010895FC01059061507040011080
:10173000D8F7809590958E0F9F1F0895FC016150FA
:10174000704001900110D8F7809590958E0F9F1FE3
:101750000895CF93DF93EC012B8120FF1AC026FF61
:101760000CC02F7B2B838E819F8101969F838E835C
:101770008A8190E0DF91CF91089522FF18C0E8811F
:10178000F9818081082E000C990B009729F42062C2
:101790002B838FEF9FEFEECF3196F983E8832E8175
:1017A0003F812F5F3F4F3F832E839927E3CFEA8509
:1017B000FB85099597FFF3CF2B81019621F080E2FD
:1017C000822B8B83E6CF80E1FBCF0F931F93CF93C8
:1017D000DF93182F092FEB018B8181FD09C01FEFCB
:1017E0000FEF812F902FDF91CF911F910F910895CF
:1017F00082FF14C02E813F818C819D81281739077B
:101800003CF4E881F981CF010196998388831083A4
:101810008E819F8101969F838E83E3CFE885F98532
:10182000812F0995892BA1F3DACFFB01238120FFBA
:1018300011C026FD0FC08F3F980771F082832F7D66
:101840002064238326813781215031093783268301
:10185000992708958FEF9FEF0895FA01AA2728305E
:1018600051F1203181F1E8946F936E7F6E5F7F4F6D
:101870008F4F9F4FAF4FB1E03ED0B4E03CD0670FE9
:10188000781F891F9A1FA11D680F791F8A1F911D3C
:10189000A11D6A0F711D811D911DA11D20D009F48C
:1018A00068943F912AE0269F11243019305D3193CE
:1018B000DEF6CF010895462F4770405D4193B3E0B7
:1018C0000FD0C9F7F6CF462F4F70405D4A3318F05E
:1018D000495D31FD4052419302D0A9F7EACFB4E00F
:1018E000A6959795879577956795BA95C9F70097C7
:1018F0006105710508959B01AC010A2E0694579568
:10190000479537952795BA95C9F7620F731F841FBE
:10191000951FA01D08959927882708952F923F921B
:101920004F925F926F927F928F929F92AF92BF92EF
:10193000CF92DF92EF92FF920F931F93CF93DF939B
:10194000CDB7DEB7CA1BDB0B0FB6F894DEBF0FBEF8
:10195000CDBF09942A88398848885F846E847D8445
:101960008C849B84AA84B984C884DF80EE80FD8047
:101970000C811B81AA81B981CE0FD11D0FB6F894BD
:0E198000DEBF0FBECDBFED010895F894FFCF7E
:10198E000000E801800000000000FB015B018801FF
:10199E004802B9019701AB012564004769766500DD
:1019AE0025643B25643A256C782125732A00313451
:0A19BE002E30352E3230303000009C
:00000001FF
