:10000000FBC0000028C1000026C1000024C1000080
:1000100022C1000020C100001EC100001CC1000060
:100020001AC1000018C1000016C1000014C1000070
:1000300012C1000010C100000EC100000CC1000080
:100040000AC1000008C1000006C1000004C1000090
:1000500002C1000000C10000FEC000001AC4000080
:10006000FAC00000E0C30000B5C30000F4C0000007
:10007000F2C00000F0C00000EEC00000ECC00000C4
:10008000EAC00000E8C00000E6C00000E4C00000D4
:100090006BC3000040C30000DEC00000DCC00000F5
:1000A000DAC00000D8C00000D6C00000D4C00000F4
:1000B000D2C00000D0C00000CEC00000CCC0000004
:1000C000CAC00000C8C00000C6C00000C4C0000014
:1000D000C2C00000C0C00000BEC00000BCC0000024
:1000E000BAC000006364696E6F70737578585B0006
:1000F00000002100240027002A002D0030003300DA
:1001000001010000040107010A010000220025008E
:1001100028002B002E0031003400020100000501F0
:1001200008010B0105050505070508080808020276
:1001300002020A0A08080404040401010101010181
:1001400001010303030303030303040707070C0C64
:100150000C0C0C0C0C0C020202020606060606062B
:1001600006060B0B0B0B0B0B0B0B010210202008D0
:100170000810204010204080020102010804020102
:100180000102040810204080804020100804020171
:1001900080040201804020100804020108040201CA
:1001A0000102040810204080010204081020408051
:1001B00000000A0B02090C0D0E08070304010000E1
:1001C000000000000000000000000000000000002F
:1001D00000000000000000000000000012111000EC
:1001E000000000000000000000000000000000000F
:1001F000000000000000930411241FBECFEFD1E2E5
:10020000DEBFCDBF00E00CBF12E0A0E0B2E0E6E050
:10021000FCE100E00BBF02C007900D92A233B107D2
:10022000D9F723E0A2E3B2E001C01D92A138B207E2
:10023000E1F710E0CCEFD0E000E005C02197010924
:10024000802FFE01B6D5CB3FD10780E00807B1F77C
:10025000BDD30C94010ED4CE382FE4ECF1E08491A0
:10026000EEE7F1E02491E8E3F1E09491992309F4B9
:1002700034C0882309F181508231F0F4E82FF0E096
:100280008827EB5BFE4F8F4F94C576017A015701AB
:100290006E0172015C017D01830187018D01910175
:1002A00095019B019F015C01A301A901AD01809112
:1002B00080008F7780938000E92FF0E0EE0FFF1F22
:1002C000E65FFE4FA591B4918FB7F894EC91311190
:1002D00048C020952E232C938FBF089580918000D5
:1002E0008F7DE8CF80918000877FE4CF84B58F77C2
:1002F00084BDE2CF84B58F7DFBCF8091B0008F7736
:100300008093B000D9CF8091B0008F7DF9CF8091DC
:1003100090008F7780939000CFCF809190008F7D59
:10032000F9CF80919000877FF5CF8091A0008F77E3
:100330008093A000C1CF8091A0008F7DF9CF8091E4
:10034000A000877FF5CF809120018F7780932001D7
:10035000B3CF809120018F7DF9CF80912001877FDD
:10036000F5CF2E2BB8CFAF92BF92CF92DF92EF9204
:10037000FF920F931F93CF93DF936C017B018B014F
:10038000040F151FEB015E01AE18BF08C017D1079F
:1003900059F06991D601ED91FC910190F081E02D29
:1003A000C6011995892B79F7C501DF91CF911F916E
:1003B0000F91FF90EF90DF90CF90BF90AF90089596
:1003C000FC01538D448D252F30E0842F90E0821B5B
:1003D000930B541710F0CF96089501970895FC01E0
:1003E000918D828D981761F0A28DAE0FBF2FB11D38
:1003F0005D968C91928D9F5F9F73928F90E0089590
:100400008FEF9FEF0895FC01918D828D981731F049
:10041000828DE80FF11D858D90E008958FEF9FEF9D
:100420000895FC01918D228D892F90E0805C9F4F73
:10043000821B91098F739927089583E492E0F1DF7D
:1004400021E0892B09F420E0822F089580EE92E0CC
:10045000E8DF21E0892B09F420E0822F0895FC01D8
:10046000A48DA80FB92FB11DA35ABF4F2C91848D15
:1004700090E001968F739927848FA689B7892C9372
:10048000A089B1898C91837080648C93938D848DC5
:10049000981306C00288F389E02D80818F7D8083C8
:1004A0000895EF92FF920F931F93CF93DF93EC0188
:1004B00081E0888F9B8D8C8D98131AC0E889F9890B
:1004C000808185FF15C09FB7F894EE89FF8960830E
:1004D000E889F98980818370806480839FBF81E08F
:1004E00090E0DF91CF911F910F91FF90EF900895D1
:1004F000F62E0B8D10E00F5F1F4F0F731127E02EAC
:100500008C8D8E110BC00FB607FCFACFE889F989E4
:10051000808185FFF5CFCE01A2DFF2CFEB8DEC0F0E
:10052000FD2FF11DE35AFF4FF0829FB7F8940B8F18
:10053000EA89FB8980818062D0CFCF93DF93EC0181
:10054000888D8823B1F0AA89BB89E889F9898C91C3
:1005500085FD03C0808186FD0CC00FB607FCF7CF78
:100560008C9185FFF2CF808185FFEDCFCE0177DFC3
:10057000EACFDF91CF91089580E090E0892B21F0C0
:1005800065DF81110E94000080E090E0892B21F05E
:1005900054DF81110E94000080E090E0892B49F037
:1005A00080E090E0892B29F00E94000081110E94D8
:1005B000000080E090E0892B49F080E090E0892BFA
:1005C00029F00E94000081110C94000008953FB7AB
:1005D000F8948091370290913802A0913902B0913D
:1005E0003A0226B5A89B05C02F3F19F00196A11D20
:1005F000B11D3FBFBA2FA92F982F8827BC01CD016D
:10060000620F711D811D911D42E0660F771F881FCB
:10061000991F4A95D1F708958F929F92AF92BF92FA
:10062000CF92DF92EF92FF924B015C01D0DF6B0122
:100630007C01CDDF6C197D098E099F09683E7340EE
:1006400081059105B0F321E0821A9108A108B10853
:1006500088EEC80E83E0D81EE11CF11C81149104C1
:10066000A104B10431F7FF90EF90DF90CF90BF90DD
:10067000AF909F908F9008956115710549F0FB012F
:1006800001900020E9F73197AF01461B570B6BCE65
:1006900090E080E008950F931F93CF93DF93CDB741
:1006A000DEB764970FB6F894DEBF0FBECDBF182F2C
:1006B000092F81E0D1DD6CE370E080E090E0ACDFF9
:1006C00088E192E09F938F930F931F938DE192E0C7
:1006D0009F938F938E010F5F1F4F1F930F9396D49D
:1006E000B80183E492E0C8DF6CE370E080E090E062
:1006F00093DF80E0B1DD0FB6F894DEBF0FBECDBF53
:1007000064960FB6F894DEBF0FBECDBFDF91CF91D8
:100710001F910F9108951F920F920FB60F921124FF
:100720000BB60F922F933F934F935F936F937F93EB
:100730008F939F93AF93BF93EF93FF9383E492E0E4
:100740008EDEFF91EF91BF91AF919F918F917F913D
:100750006F915F914F913F912F910F900BBE0F9032
:100760000FBE0F901F9018951F920F920FB60F9209
:1007700011240BB60F922F938F939F93EF93FF93B8
:10078000E0915302F09154028081E0915902F0917E
:100790005A0282FD1DC0908180915C028F5F8F7331
:1007A00020915D02821741F0E0915C02F0E0ED5B88
:1007B000FD4F958F80935C02FF91EF919F918F91F8
:1007C0002F910F900BBE0F900FBE0F901F9018959A
:1007D0008081F2CF1F920F920FB60F9211240BB6A9
:1007E0000F922F933F934F935F936F937F938F93CA
:1007F0009F93AF93BF93EF93FF9380EE92E02FDE32
:10080000FF91EF91BF91AF919F918F917F916F91E8
:100810005F914F913F912F910F900BBE0F900FBEA4
:100820000F901F9018951F920F920FB60F921124E0
:100830000BB60F922F938F939F93EF93FF93E091BB
:10084000F002F091F1028081E091F602F091F7025E
:1008500082FD1DC090818091F9028F5F8F7320917E
:10086000FA02821741F0E091F902F0E0E052FD4F08
:10087000958F8093F902FF91EF919F918F912F9126
:100880000F900BBE0F900FBE0F901F901895808198
:10089000F2CF1F920F920FB60F9211242F933F9316
:1008A0008F939F93AF93BF938091330290913402C3
:1008B000A0913502B09136023091320223E0230F2D
:1008C0002D3758F50196A11DB11D2093320280935A
:1008D000330290933402A0933502B0933602809194
:1008E000370290913802A0913902B0913A020196F4
:1008F000A11DB11D8093370290933802A093390255
:10090000B0933A02BF91AF919F918F913F912F91F8
:100910000F900FBE0F901F90189526E8230F029698
:10092000A11DB11DD2CFE3E4F2E01382128248EEA2
:1009300053E060E070E044835583668377838AE008
:1009400092E0918380832DEC30E0358724872CEC76
:1009500030E03787268728EC30E0318B208B29EC7C
:1009600030E0338B228B2AEC30E0358B248B2EEC5D
:1009700030E0378B268B118E128E138E148EE0EEA4
:10098000F2E01382128244835583668377839183D6
:10099000808385EC90E09587848784EC90E097874E
:1009A000868780EC90E0918B808B81EC90E0938B3C
:1009B000828B82EC90E0958B848B86EC90E0978B19
:1009C000868B118E128E138E148E0895CF93DF9323
:1009D000CDB7DEB76E970FB6F894DEBF0FBECDBFB2
:1009E000789484B5826084BD84B5816084BD85B50A
:1009F000826085BD85B5816085BD80916E00816016
:100A000080936E00109281008091810082608093BB
:100A100081008091810081608093810080918000BD
:100A20008160809380008091B10084608093B100E8
:100A30008091B00081608093B000809191008260CD
:100A400080939100809191008160809391008091CA
:100A500090008160809390008091A10082608093DB
:100A6000A1008091A10081608093A1008091A000ED
:100A700081608093A0008091210182608093210198
:100A8000809121018160809321018091200181600A
:100A90008093200180917A00846080937A00809115
:100AA0007A00826080937A0080917A0081608093DE
:100AB0007A0080917A00806880937A001092C10059
:100AC000E0915302F091540222E02083E0914F0222
:100AD000F09150021082E0915102F09152028AE8A6
:100AE000808310925B02E0915702F091580296E0E9
:100AF0009083E0915502F09156028081806180835D
:100B0000E0915502F0915602808188608083E091E7
:100B10005502F0915602808180688083E0915502F1
:100B2000F091560280818F7D8083E091F002F091F8
:100B3000F1022083E091EC02F091ED021082E0914D
:100B4000EE02F091EF028FEC80831092F802E091B8
:100B5000F402F091F5029083E091F202F091F30239
:100B6000808180618083E091F202F091F3028081C4
:100B700088608083E091F202F091F30280818068C6
:100B80008083E091F202F091F30280818F7D808377
:100B9000EEE7F1E02491E8E3F1E08491882399F015
:100BA00090E0880F991FFC01E051FF4FA591B4918F
:100BB000FC01E65FFE4F859194918FB7F894EC911C
:100BC000E22BEC938FBF8AE2282E82E0382ECE01F2
:100BD00001965C019DE3492E92E0592E26E2622E99
:100BE00022E0722E33E2832E32E0932E80EE92E0EA
:100BF00018DC892B51F080EE92E0F1DB8133910516
:100C000009F058C085E190E046DD10924202109252
:100C1000410210923D0210923E0210923F02109249
:100C2000400283E492E0FDDB892B09F47DC082E37E
:100C300090E0C7D090933C0280933B0263E070E069
:100C400080E090E0E9DC83E492E0EBDBE0903B02C3
:100C5000F0903C0200914102109142026701C00EE7
:100C6000D11E892B09F458C083E492E0B8DB8B33A2
:100C700039F5F60110821092420210924102BF92A1
:100C8000AF929F928F92FF92EF92EFD10F900F90C1
:100C90000F900F900F900F9089819A81019799F290
:100CA00083E492E0BEDB892B09F46DC083E492E01B
:100CB00096DBF6CFC29709F0A8CF89E190E0A4CFE8
:100CC0008A33A1F4F601108210924202109241027E
:100CD000BF92AF929F928F92FF92EF92C6D10F90E8
:100CE0000F900F900F900F900F90ADCF813259F46D
:100CF000F601108210924202109241025F924F92CE
:100D00007F926F92E9CF0F5F1F4F109342020093C3
:100D10004102F601808397CF0F5F1F4F109342026D
:100D200000934102F601108220914102309142026B
:100D300060913B0270913C0280913D0290913E0295
:100D4000A0913F02B0914002121613061CF5FB0160
:100D500040814423C1F00097A105B105F9F07F93CC
:100D60006F93BF93AF939F938F933F922F92BF92B6
:100D7000AF924CD1B50180EE92E07EDC0FB6F894D4
:100D8000DEBF0FBECDBF80913B0290913C02B5D03B
:100D9000F3DB2CCF892B8A2B8B2BA9F7FB018081CE
:100DA000882389F31216130674F780EE92E064DC50
:100DB000EACFEE0FFF1F881F8BBF0790F691E02D43
:100DC00019940F931F93CF93DF938230910510F402
:100DD00082E090E0E0917F03F091800330E020E03A
:100DE000B0E0A0E0309799F42115310509F44AC02C
:100DF000281B390B24303105D8F58A819B81611578
:100E0000710589F1FB0193838283FE0111C040814A
:100E100051810281138148175907E0F0481759079B
:100E200099F4109761F012960C93129713961C93F5
:100E30003296CF01DF91CF911F910F9108950093CA
:100E40007F0310938003F4CF2115310551F0421731
:100E5000530738F0A901DB019A01BD01DF01F80158
:100E6000C1CFEF01F9CF9093800380937F03CDCF63
:100E7000FE01E20FF31F81939193225031093983D0
:100E80002883D7CF20917D0330917E03232B41F41B
:100E9000209102023091030230937E0320937D0360
:100EA00020910002309101022115310541F42DB746
:100EB0003EB74091040250910502241B350BE0918E
:100EC0007D03F0917E03E217F307A0F42E1B3F0B86
:100ED0002817390778F0AC014E5F5F4F24173507AC
:100EE00048F04E0F5F1F50937E0340937D03819324
:100EF00091939FCFF0E0E0E09CCFCF93DF930097FA
:100F0000E9F0FC01329713821282A0917F03B09125
:100F10008003ED0130E020E01097A1F420813181C1
:100F2000820F931F20917D0330917E03281739078C
:100F300009F061C0F0937E03E0937D03DF91CF91D0
:100F40000895EA01CE17DF07E8F54A815B819E012B
:100F500041155105B1F7E901FB83EA8349915991A4
:100F6000C40FD51FEC17FD0761F4808191810296B3
:100F7000840F951FE90199838883828193819B83E4
:100F80008A83F0E0E0E012968D919C911397009790
:100F9000B9F52D913C911197CD010296820F931FC7
:100FA00020917D0330917E032817390739F6309759
:100FB00051F51092800310927F03B0937E03A093AB
:100FC0007D03BCCFD383C28340815181840F951FA1
:100FD000C817D90761F44E5F5F4F88819981480F28
:100FE000591F518340838A819B819383828321157A
:100FF000310509F0B0CFF0938003E0937F039ECFDB
:10100000FD01DC01C0CF13821282D7CF0F931F9353
:10101000CF93DF93CDB7DEB72E970FB6F894DEBF30
:101020000FBECDBF0E891F8986E08C831A8309838A
:101030008FEF9FE79E838D83AE01465E5F4F688D85
:10104000798DCE01019632D02F813885020F131F82
:10105000F80110822E960FB6F894DEBF0FBECDBFFA
:10106000DF91CF911F910F910895CF93DF93CDB76B
:10107000DEB72E970FB6F894DEBF0FBECDBF85E06A
:101080008C838C899D899A838983AE01485E5F4FEA
:101090006E897F89CE0101969BD32E960FB6F89468
:1010A000DEBF0FBECDBFDF91CF9108952F923F924B
:1010B0004F925F926F927F928F929F92AF92BF9268
:1010C000CF92DF92EF92FF920F931F93CF93DF9314
:1010D00000D000D000D01F921F92CDB7DEB77C01A8
:1010E0003B018A01FC0117821682838181FFD0C1F6
:1010F000CE0101965C01F7019381F30193FD859187
:1011000093FF81913F01882309F449C1853239F465
:1011100093FD859193FF81913F01853221F4B701C1
:1011200090E0C6D4E8CF912C212C312CFFE1F315AF
:1011300038F08B3211F190F4803209F1833229F1C9
:1011400037FC3CC020ED280F2A3050F536FE20C079
:101150008AE0989E200D1124922E06C08D3291F0C7
:10116000803371F7689430F8F30193FD859193FF14
:1011700081913F018111DACF21C0689431F86894E0
:1011800032F8F2CF689433F8EFCF689434F8ECCFAC
:10119000EAE02E9E200D1124222E689435F8E4CF2B
:1011A0008E3229F436FCFBC0689436F8DDCF8C36DD
:1011B00019F4689437F8D8CF8836B1F2982F9F7D0C
:1011C00095549330D8F0833691F18337B1F183355C
:1011D00009F05EC02801F2E04F0E511CF801C080FA
:1011E000D180692D70E036FC02C06FEF7FEFC60141
:1011F0000DD44C01689437F882010AC00C5F1F4F70
:10120000FFE3F98388248394912C6501E89437F8EF
:1012100033FE2AC0522C8114910459F5552009F44B
:101220006ACFB70180E290E043D45A94F7CFF80137
:10123000808189830E5F1F4FE5CF2801F2E04F0EBA
:10124000511CF801C080D180692D70E036FC02C0CD
:101250006FEF7FEFC601E5D34C018201D7CFB70115
:1012600080E290E025D42A942814190409F0B8F7F4
:10127000D1CFF60137FC859137FE81916F01B7011F
:1012800090E016D451105A94F1E08F1A9108C3CF10
:10129000843619F0893609F073C0F80137FE67C04B
:1012A00060817181828193810C5F1F4FF32DFF76E6
:1012B0003F2E97FF09C090958095709561957F4F5F
:1012C0008F4F9F4F689437F82AE030E0A50138D45B
:1012D000C82ECA188C2C432C36FE0CC0E89440F85B
:1012E000C91440F434FE05C032FC03C0F32DFE7E69
:1012F0004F2E892C44FEA6C0FE01EC0DF11D80810D
:10130000803309F098C0242D297E422E842D8870C8
:10131000582E43FCA5C040FE9FC09C2C821418F49C
:101320002C0C922C981844FEA1C0B70180E390E0E9
:10133000BFD342FE08C088E790E041FE02C088E5C6
:1013400090E0B701B5D3C91408F49CC0CA94D12C5D
:101350009FEFC91AD90ACA0CDB1CF60182916F01F2
:10136000B70190E0A5D3AC14BD04B9F757CF6081A5
:101370007181072E000C880B990B0E5F1F4F96CFC3
:10138000D32CE894D4F82AE030E08537E1F1232D1E
:10139000297FD22E8F36A9F1F0F4883551F1F7016B
:1013A000868197812B960FB6F894DEBF0FBECDBF16
:1013B000DF91CF911F910F91FF90EF90DF90CF9031
:1013C000BF90AF909F908F907F906F905F904F9065
:1013D0003F902F900895803749F0883701F7D4FE69
:1013E00002C06894D2F820E130E00DC06894D4F8CF
:1013F000F6CF34FE03C0822F8660D82E20E132E083
:1014000002C028E030E0F801D7FE0EC06081718193
:10141000828193810C5F1F4FA50192D3C82ECA18F9
:101420003D2CE89437F856CF6081718190E080E0E0
:101430000E5F1F4FF1CF42FC02C0839467CF8394AD
:10144000839464CF842D867809F460CFF6CFB701FA
:1014500080E290E02DD383948214C8F3512C63CFA3
:10146000522C5818821408F45ECFF8CF842D867859
:1014700009F469CF8BE241FE80E247FC8DE2B701BF
:1014800090E060CFB70180E390E012D39A945BCFF5
:101490008FEF9FEF87CF20FD09C0FC0123FD05C022
:1014A00022FF02C07383628351834083089544FD09
:1014B00017C046FD1DC0DB01FC01AA0FBB1FEE1FBC
:1014C000FF1F1094D1F76A0F7B1F8E1F9F1F660F9F
:1014D000771F881F991F620F711D811D911D08952F
:1014E00033E0660F771F881F991F3150D1F7F3CF74
:1014F00034E0F7CF0F931F93CF93DF938C01C80194
:101500009BD2EC0197FD06C06ED2892BC1F7B801C2
:10151000CE01FED2CE01DF91CF911F910F910895A0
:101520008F929F92AF92BF92EF92FF920F931F9371
:10153000CF93DF938C01D62F7A01B22E7DD29C01FE
:1015400033272B32310529F02D323105A1F468946F
:10155000B7F8D15061F480E0DF91CF911F910F91E6
:10156000FF90EF90BF90AF909F908F900895C8012B
:1015700063D297FDF0CFCB2DCD7F2B2D2073E9F4D7
:101580008033D9F4AA24AA94AD0E79F0C80154D2BC
:1015900097FD0BC0282F2F7D283559F4C264D250F7
:1015A00021F0C80149D297FF08C0812C912C540129
:1015B0001AC0B6FE29C0C260DA2D812C912C5401CC
:1015C00020ED280F283018F1C4FD09C02A30F8F0AA
:1015D000C6FF05C02F7D3FEE320F3630B8F0B801A0
:1015E00097D2C1FFB8CFC7FF08C0B094A094909421
:1015F0008094811C911CA11CB11C2C2FB501A4014D
:10160000C70149DF81E0A8CFC261D6CF27504C2F58
:10161000C501B4014CDF4B015C01C260D15019F32C
:10162000C8010AD297FFCCCFDCCF7F928F929F92D6
:10163000AF92BF92CF92DF92EF92FF920F931F93E0
:10164000CF93DF93CDB7DEB7A0970FB6F894DEBF88
:101650000FBECDBF5C01962E7A01CE0101966C01C2
:1016600080E2F60111928A95E9F7F501B3818901CB
:1016700030E020E0712C812CA0E041E050E0F80146
:10168000B3FD8591B3FF8191982F8F01811117C010
:1016900010E000E0C801A0960FB6F894DEBF0FBEC0
:1016A000CDBFDF91CF911F910F91FF90EF90DF9011
:1016B000CF90BF90AF909F908F907F9008958E3580
:1016C00019F42115310541F1A21713064CF48D359B
:1016D00049F18D3229F4811006C0882483941DC0FD
:1016E000882009F462C0E92FE695E695E695EC0DB1
:1016F000FD2DF11D892F8770BA0101C0660F8A95F3
:10170000EAF78081682B6083791651F0971510F401
:101710009F5FE9CF9150E7CFA1E02F5F3F4FAFCF61
:10172000812CFBCF882019F08E8180628E83AA23C2
:1017300059F0F6019E012F5D3F4F80818095808397
:101740003196E217F307C9F788248394C50174D151
:1017500097FD15C0E82FE695E695E695EC0DFD2D75
:10176000F11D208130E0AC014770552702C035954E
:1017700027954A95E2F720FD05C0B501C9D188201B
:1017800069F086CFE114F10429F0F7018083C701E5
:1017900001967C019A94812C9110D8CFE114F10428
:1017A00009F478CFF701108275CFE82FE695E6951A
:1017B000E695EC0DFD2DF11D982F9770BA0101C033
:1017C000660F9A95EAF79081692B6083782EA5CFF2
:1017D0005F926F927F928F929F92AF92BF92CF92C1
:1017E000DF92EF92FF920F931F93CF93DF936C01E1
:1017F000EB015A01FC0117821682512CF601E3809D
:10180000FE01E3FC8591E3FE8191182FEF0188230F
:10181000C9F090E0E8D0892B19F0C6016BDEEECF5D
:10182000153241F4FE01E3FC1591E3FE1191EF0145
:10183000153259F4C60100D197FD88C01817F1F28E
:10184000B60166D1852D90E085C000E01A3231F4F2
:10185000E3FC1591E3FE1191EF0101E0F12C20ED85
:10186000210F2A3038F101FF34C0FF2059F3183618
:1018700099F11C3609F43AC0112321F3612F70E06D
:1018800084EE90E0B8D0892BE9F2912C812C00FDF8
:1018900006C0F50180809180C50102965C011E366C
:1018A00069F5F6014681578170E060E0202FC401A0
:1018B000F2DDA4CF02606F2D70E090E080E040E2A6
:1018C000F6DDF62EFE01E3FC1591E3FE1191EF012A
:1018D000C6CFFF24FA94CBCFFE01E3FC1591E3FEC3
:1018E0001191EF01183609F0C7CF08600460FE01BE
:1018F000E3FC1591E3FE1191EF01BECF1336B9F46D
:1019000001FD02C0FF24F394C60196D097FD1EC0CE
:101910008114910429F0F4018083C40101964C01E3
:10192000FA94F110F1CF00FD69CF539467CF1B35C6
:1019300009F59E01A4016F2DC60177DEEC01892B0C
:1019400091F7F6018381807309F47CCF8FEF9FEFCD
:10195000511078CFDF91CF911F910F91FF90EF90B1
:10196000DF90CF90BF90AF909F908F907F906F90BF
:101970005F900895C601BEDD97FDE8CF1F3689F15F
:1019800030F4143641F0193639F0006405C01337CD
:10199000B1F01537D1F70062202FA4016F2DC601D9
:1019A000BFDD8111C0CFCDCF8114910429F0F401A6
:1019B0006082C40101964C01FA94FF2059F0C601DF
:1019C0003BD03C0197FD06C00ED0892B69F3B601D0
:1019D000C3019ED08114910409F4A5CFF4011082B3
:1019E000A2CF0061D9CF911109C1803219F089507D
:1019F0008550D0F70895FC010590061621F00020CF
:101A0000D9F7C00108953197CF010895FC010590E1
:101A1000615070400110D8F7809590958E0F9F1FF0
:101A20000895FC016150704001900110D8F7809535
:101A300090958E0F9F1F0895CF93DF93EC012B811C
:101A400020FF1AC026FF0CC02F7B2B838E819F8125
:101A500001969F838E838A8190E0DF91CF910895D4
:101A600022FF18C0E881F9818081082E000C990BB3
:101A7000009729F420622B838FEF9FEFEECF3196F2
:101A8000F983E8832E813F812F5F3F4F3F832E8371
:101A90009927E3CFEA85FB85199597FFF3CF2B8133
:101AA000019621F080E2822B8B83E6CF80E1FBCF91
:101AB0000F931F93CF93DF93182F092FEB018B8187
:101AC00081FD09C01FEF0FEF812F902FDF91CF9184
:101AD0001F910F91089582FF14C02E813F818C8148
:101AE0009D81281739073CF4E881F981CF010196DF
:101AF0009983888310838E819F8101969F838E8333
:101B0000E3CFE885F985812F1995892BA1F3DACFE9
:101B1000FB01238120FF11C026FD0FC08F3F9807D6
:101B200071F082832F7D20642383268137812150A9
:101B3000310937832683992708958FEF9FEF089502
:101B4000FA01AA27283051F1203181F1E8946F93EE
:101B50006E7F6E5F7F4F8F4F9F4FAF4FB1E03ED094
:101B6000B4E03CD0670F781F891F9A1FA11D680F32
:101B7000791F8A1F911DA11D6A0F711D811D911D65
:101B8000A11D20D009F468943F912AE0269F1124DA
:101B90003019305D3193DEF6CF010895462F47703E
:101BA000405D4193B3E00FD0C9F7F6CF462F4F7099
:101BB000405D4A3318F0495D31FD4052419302D0F7
:101BC000A9F7EACFB4E0A69597958795779567959D
:101BD000BA95C9F700976105710508959B01AC019D
:101BE0000A2E06945795479537952795BA95C9F7C4
:101BF000620F731F841F951FA01D089599278827C2
:061C00000895F894FFCFE7
:101C0600000081038000000000005102B301E001E2
:101C16009D021102EF010302476976650025643BC8
:101C2600257300256400256C780023256C783B25F8
:021C3600730039
:00000001FF
