:100000000C94E0000C9408010C9408010C94080175
:100010000C9408010C9408010C9408010C9408013C
:100020000C9408010C9408010C9408010C9408012C
:100030000C9408010C9408010C9408010C9408011C
:100040000C94B1040C9408010C947F040C94590492
:100050000C9408010C9408010C9408010C940801FC
:100060000C94FB040C94080100407A10F35A00A091
:10007000724E18090010A5D4E80000E87648170071
:1000800000E40B54020000CA9A3B000000E1F505B1
:10009000000080969800000040420F000000A086FB
:1000A00001000000102700000000E803000000002D
:1000B0006400000000000A000000000001000000D1
:1000C00000002C76D888DC674F0823DFC1DFAE59EB
:1000D000E1B1B796E5E3E453C63AE651997696E87E
:1000E000E6C28426EB898C9B62ED407C6FFCEFBC02
:1000F0009C9F40F2BAA56FA5F490055A2AF75C932D
:100100006B6CF9676DC11BFCE0E40D47FEF520E662
:10011000B500D0ED902E0300943577050080841E45
:10012000080000204E0A000000C80C333333330FA0
:10013000986E12831141EF8D2114893BE65516CF3D
:10014000FEE6DB18D1844B381BF77C1D901DA4BB49
:10015000E424203284725E228100C9F124ECA1E5FE
:100160003D276364696E6F70737578585B0000009B
:100170000008000201000003040700000000000066
:10018000000000000000250028002B0000000000F7
:10019000240027002A0004040404040404040202C6
:1001A00002020202030303030303010204081020F6
:1001B00040800102040810200102040810201A06E1
:1001C00011241FBECFEFD8E0DEBFCDBF11E0A0E00D
:1001D000B1E0E8E2F6E202C005900D92A034B1076A
:1001E000D9F722E0A0E4B1E001C01D92AE3AB20717
:1001F000E1F710E0C0EED0E004C02197FE010E94BC
:10020000290CCF3DD107C9F70E9453060C94121355
:100210000C940000982F2091000281E0213208F018
:1002200043C08091DC018111FCCF8091FF0132E05D
:100230003093DC019093DB019FEF9093DA011092F1
:10024000D9012093D801AFEDB1E0E8EBF1E090E007
:10025000291331C01092B7019091B701880F892BF3
:100260008093B7018091B601813049F51092B601B3
:100270008091B7018093BB008091BC0083FDF8CFD3
:1002800085EC8093BC008091DC018230E1F38091A9
:10029000DA018F3FB1F08091DA018032A1F08091D4
:1002A000DA01803391F084E01092DE0110920002B6
:1002B0001092DD0108953D9131939F5FC9CF85EE86
:1002C000E0CF80E0F1CF82E0EFCF83E0EDCF4F923F
:1002D0005F926F927F928F929F92AF92BF92CF92D6
:1002E000DF92EF92FF921F93CF93DF93CDB7DEB7EC
:1002F000D4500FB6F894DEBF0FBECDBFFE013196CD
:10030000412C512C32019F0173016201A8E0B0E041
:100310004601570110E881229924AA24BB24CC0C61
:10032000DD1CEE1CFF1C89288A288B2809F0C0944C
:10033000119771F7DD24EE24FF24C192D192E1924E
:10034000F192AFEF4A1A5A0A6A0A7A0A411411E086
:10035000510661047104C1F6FC01C12CD12C760157
:10036000BFE24B2E512C612C712CC416D506E6062B
:10037000F706D1F08191082E000C990BAA0BBB0B4C
:1003800084259525880F991F880F991FD901A80FDB
:10039000B91F8C91482E512C712C612C8FEFC81AEB
:1003A000D80AE80AF80AE1CFC301B2016095DC5F20
:1003B0000FB6F894DEBF0FBECDBFDF91CF911F9176
:1003C000FF90EF90DF90CF90BF90AF909F908F9075
:1003D0007F906F905F904F9008958091B1019091C0
:1003E000B001891B990B089508950895AF92BF92AB
:1003F000CF92DF92EF92FF920F931F93CF93DF93F1
:100400006C017B018B01040F151FEB015E01AE181F
:10041000BF08C017D10759F06991D601ED91FC9141
:100420000190F081E02DC6010995892B79F7C5016E
:10043000DF91CF911F910F91FF90EF90DF90CF90C0
:10044000BF90AF900895FC01538D448D252F30E06F
:10045000842F90E0821B930B541710F0CF960895D1
:1004600001970895FC01918D828D981761F0A28DFE
:10047000AE0FBF2FB11D5D968C91928D9F5F9F73C4
:10048000928F90E008958FEF9FEF0895FC01918D7A
:10049000828D981731F0828DE80FF11D858D90E0E7
:1004A00008958FEF9FEF0895FC01918D228D892F84
:1004B00090E0805C9F4F821B91098F73992708956C
:1004C00081E092E00E94540221E0892B09F420E0AF
:1004D000822F089580E090E0892B29F00E9460022D
:1004E00081110C9400000895FC01A48DA80FB92F70
:1004F000B11DA35ABF4F2C91848D90E001968F734C
:100500009927848FA689B7892C93A089B1898C916A
:10051000837080648C93938D848D981306C00288B9
:10052000F389E02D80818F7D80830895EF92FF9283
:100530000F931F93CF93DF93EC0181E0888F9B8D06
:100540008C8D98131AC0E889F989808185FF15C0C0
:100550009FB7F894EE89FF896083E889F9898081E3
:100560008370806480839FBF81E090E0DF91CF91B2
:100570001F910F91FF90EF900895F62E0B8D10E0D4
:100580000F5F1F4F0F731127E02E8C8D8E110CC043
:100590000FB607FCFACFE889F989808185FFF5CF8E
:1005A000CE010E947402F1CFEB8DEC0FFD2FF11DF7
:1005B000E35AFF4FF0829FB7F8940B8FEA89FB89CB
:1005C00080818062CFCFCF93DF93EC01888D882329
:1005D000B9F0AA89BB89E889F9898C9185FD03C0A6
:1005E000808186FD0DC00FB607FCF7CF8C9185FF8B
:1005F000F2CF808185FFEDCFCE010E947402E9CF5A
:10060000DF91CF91089590E0FC01E259FE4F2491D3
:10061000FC01E655FE4F3491FC01EA56FE4FE49191
:10062000EE23C9F0222339F0233001F1A8F4213060
:1006300019F1223029F1F0E0EE0FFF1FEE57FE4FC7
:10064000A591B4918FB7F894EC91611126C03095C3
:100650003E233C938FBF08952730A9F02830C9F07E
:10066000243049F7809180008F7D03C08091800005
:100670008F7780938000DFCF84B58F7784BDDBCF09
:1006800084B58F7DFBCF8091B0008F778093B000D1
:10069000D2CF8091B0008F7DF9CF3E2BDACF3FB71C
:1006A000F8948091880190918901A0918A01B0917C
:1006B0008B0126B5A89B05C02F3F19F00196A11DFF
:1006C000B11D3FBFBA2FA92F982F8827BC01CD019C
:1006D000620F711D811D911D42E0660F771F881FFB
:1006E000991F4A95D1F708958F929F92AF92BF922A
:1006F000CF92DF92EF92FF924B015C010E944F0379
:100700006B017C010E944F036C197D098E099F09C2
:10071000683E734081059105A8F321E0821A910893
:10072000A108B10888EEC80E83E0D81EE11CF11CB8
:1007300081149104A104B10429F7FF90EF90DF9098
:10074000CF90BF90AF909F908F90089585ED80934C
:10075000BC008091BC0084FDFCCF1092DC010895A8
:1007600020916001260F3327331F21323105ECF42D
:100770002091DC01FC0190E080E0243069F082E00F
:100780000895A09160012191AC01405C5E4FA40FDF
:10079000B52FB11D2C930196861798F380916001B7
:1007A000680F6093600180E0089581E008950895E6
:1007B000E091B0018091B101E81730F4F0E0E0572A
:1007C000FE4F808190E008958FEF9FEF0895909104
:1007D000B0018091B1012FEF3FEF981748F4E92F56
:1007E000F0E0E057FE4F208130E09F5F9093B00132
:1007F000C9010895CF92DF92EF92FF920F931F935A
:10080000CF93DF937C01CB018A012091DD0122236C
:1008100089F0EB016B01C40ED51ECC15DD0569F026
:100820006991D701ED91FC910190F081E02DC70114
:100830000995F3CF642F0E94B003C801DF91CF91D7
:100840001F910F91FF90EF90DF90CF900895CF937D
:10085000DF931F92CDB7DEB769832091DD0122239C
:10086000F9F020910002203258F021E030E0FC0144
:100870003383228390E080E00F90DF91CF91089541
:100880008091DE01E82FF0E0E152FE4F99819083E4
:100890008F5F8093DE018093000281E090E0ECCFD7
:1008A00061E0CE0101960E94B003F7CF90E080E0B6
:1008B00008951F920F920FB60F9211242F933F931A
:1008C0004F935F936F937F938F939F93AF93BF9358
:1008D000EF93FF9381E092E00E947402FF91EF9109
:1008E000BF91AF919F918F917F916F915F914F9148
:1008F0003F912F910F900FBE0F901F9018951F9250
:100900000F920FB60F9211242F938F939F93EF9313
:10091000FF93E0911102F09112028081E0911702A1
:10092000F091180282FD1BC0908180911A028F5FA6
:100930008F7320911B02821741F0E0911A02F0E0C0
:10094000EF5FFD4F958F80931A02FF91EF919F917A
:100950008F912F910F900FBE0F901F90189580814F
:10096000F4CF1F920F920FB60F9211242F933F9343
:100970008F939F93AF93BF93809184019091850152
:10098000A0918601B09187013091830123E0230F6C
:100990002D3758F50196A11DB11D20938301809339
:1009A000840190938501A0938601B0938701809183
:1009B000880190918901A0918A01B0918B010196E3
:1009C000A11DB11D8093880190938901A0938A0194
:1009D000B0938B01BF91AF919F918F913F912F91D8
:1009E0000F900FBE0F901F90189526E8230F0296C8
:1009F000A11DB11DD2CF1F920F920FB60F921124DD
:100A00002F933F934F935F936F937F938F939F9316
:100A1000AF93BF93EF93FF938091B900887F8036A7
:100A200009F44AC0F0F5883209F4A7C018F58031FE
:100A300009F49BC0B8F4882309F4F9C0883009F49C
:100A400094C0FF91EF91BF91AF919F918F917F9152
:100A50006F915F914F913F912F910F900FBE0F902B
:100A60001F901895883109F488C0803251F780931F
:100A7000DA0114C0803409F49DC040F48033B9F326
:100A80008833F9F68093DA0185ECB0C0803509F43B
:100A900085C0883509F496C0883499F60E94A6036B
:100AA000D0CF883909F48CC038F5883729F050F454
:100AB000883611F0803729F683E08093DC011092AC
:100AC000820157C0883809F47BC0803919F080381A
:100AD00009F0B7CF80918201803208F071C0E091B7
:100AE000820181E08E0F809382018091BB00F0E053
:100AF000EE59FE4F80833DC0803B39F0E0F4803AF0
:100B000009F479C0883A09F09CCF84E08093DC0135
:100B10001092610110926001E0918E01F0918F01BD
:100B200009958091600181110FC081E0809360017F
:100B30001092400109C0803C09F4A6CF883C09F41A
:100B4000A3CF883B09F07DCFE091610181E08E0F5A
:100B500080936101F0E0E05CFE4F80818093BB00F8
:100B6000909161018091600129C08091B7018093CB
:100B7000BB0085EC8093BC0064CF9091D90180913B
:100B8000D801981758F5E091D90181E08E0F809334
:100B9000D901F0E0E854FE4F8081E9CFE091D9011E
:100BA00081E08E0F8093D9018091BB00F0E0E85482
:100BB000FE4F80839091D9018091D8019817C8F297
:100BC00085E8D8CFE091D90181E08E0F8093D901DB
:100BD0008091BB00F0E0E854FE4F80838091DB0100
:100BE00081115CCF81E08093B60184EA8093BC00E0
:100BF0001092DC0126CF85EC8093BC001092DC01C2
:100C000080918201803230F4E0918201F0E0EE596F
:100C1000FE4F10826091820170E0E0918C01F091B2
:100C20008D0182E691E00995109282010ACF10921F
:100C3000DA0134CFE1E0F2E01382128288EE93E031
:100C4000A0E0B0E084839583A683B7832AE031E0F7
:100C50003183208325EC30E03587248724EC30E095
:100C60003787268720EC30E0318B208B21EC30E079
:100C7000338B228B22EC30E0358B248B26EC30E05A
:100C8000378B268B118E128E138E148EEEE9F2E0C6
:100C90001382128284839583A683B7838CE191E0CB
:100CA000918380830895CF93DF93CDB7DEB76997A3
:100CB0000FB6F894DEBF0FBECDBF789484B58260C6
:100CC00084BD84B5816084BD85B5826085BD85B5F0
:100CD000816085BD80916E00816080936E0010926E
:100CE00081008091810082608093810080918100E9
:100CF000816080938100809180008160809380007A
:100D00008091B10084608093B1008091B0008160D7
:100D10008093B00080917A00846080937A00809103
:100D20007A00826080937A0080917A00816080935B
:100D30007A0080917A00806880937A001092C100D6
:100D40001092B0011092B1011092DE0110920002D7
:100D50001092DC0181E08093DB011092B60161E02A
:100D600082E10E94030361E083E10E94030380911A
:100D7000B9008E7F8093B9008091B9008D7F8093F8
:100D8000B90088E48093B80085E48093BC0084EFC8
:100D900091E090938F0180938E0185EF91E0909385
:100DA0008D0180938C01E0911102F091120282E09A
:100DB0008083E0910D02F0910E021082E0910F020B
:100DC000F09110028AE8808310921902E0911502D6
:100DD000F091160286E08083E0911302F0911402F4
:100DE000808180618083E0911302F0911402808100
:100DF00088608083E0911302F09114028081806802
:100E00008083E0911302F091140280818F7D8083B2
:100E1000ECEAF1E02491E8E9F1E08491882399F08B
:100E200090E0880F991FFC01E457FE4FA591B49103
:100E3000FC01EE57FE4F859194918FB7F894EC9199
:100E4000E22BEC938FBF60E082E00E94030381E01D
:100E50008093DD0188E48093FF011092DE011092FF
:100E6000000261E08EE992E00E94270460E68EE9CC
:100E700092E00E94270481E00E940A016CE271E086
:100E800080E090E00E947403CE0101966C014E0157
:100E900095E1890E911C552453945092DD0128E46C
:100EA0002093FF011092DE011092000260E08EE9B3
:100EB00092E00E94270481E00E940A018091DC01F7
:100EC0008111FCCF5092DC015092DB018FEF8093B7
:100ED000DA011092D9015092D8015092B701809155
:100EE000B70180698093B7018091B601813009F024
:100EF00096C01092B6018091B7018093BB0080919B
:100F0000BC0083FDF8CF95EC9093BC008091DC0190
:100F10008130E1F38091D90192E0823010F4909118
:100F2000D901A8EBB1E0E0E9F1E080E089137BC0F2
:100F30001092B0018093B101823051F48EE992E0B9
:100F40000E94E703482E8EE992E00E94E7033C01ED
:100F5000342C212C8301007F1127020D131D84E006
:100F6000169507958A95E1F7011588E0180708F0AE
:100F700010511092B5011092B40181E092E00E94EC
:100F80005402892B09F4CBC082E390E00E942F0C1D
:100F90009093B3018093B20165E070E080E090E04F
:100FA0000E94740381E092E00E945402E090B40138
:100FB000F090B501A090B201B090B301892B09F473
:100FC0003FC081E092E00E943202F501EE0DFF1D6C
:100FD0008B3369F510821092B5011092B401DF9243
:100FE000CF928AE291E09F938F93BF92AF920E943B
:100FF000800D0F900F900F900F900F900F908981A0
:101000009A81459779F281E092E00E945402892BFF
:1010100009F485C081E092E00E943202F4CF25EE0F
:101020002093BC0073CF2D9121938F5F7FCF9FEFD3
:10103000E91AF90AF092B501E092B4018083B2CFC7
:101040001E141F040CF06BC0C70101969093B501EC
:101050008093B401F501EE0DFF1D108218161906DC
:101060000CF05DC06DE271E0C5010E94540D892B4A
:1010700009F055C0B801110F880B990B0E94300B75
:1010800020E030E040E85DE30E946B0B840121E04A
:1010900042E00E94A20861E082E00E94030344E073
:1010A00050E060E070E0C4010E946701162F072F36
:1010B000F82EE92E6CE370E080E090E00E9474036B
:1010C0009F928F92EF92FF920F931F931F9225E1B1
:1010D0002F931F925F9282E391E09F938F93DF9211
:1010E000CF920E945D0DF60101900020E9F7319743
:1010F000AF014C195D09B60181E092E00E94F60152
:101100006CE370E080E090E00E94740360E082E0B5
:101110000E9403030FB6F894DEBF0FBECDBF8091CF
:10112000B2019091B3010E94CB0C80E090E0892B3A
:1011300009F4B3CE0E946002882309F4ACCE0E9469
:101140000000A9CEEF920F931F93CF93DF93E80196
:1011500034E047FD34E1042E000C550B57FF03C06B
:10116000519541955109E32E022F242FAE010E9483
:10117000C008CE01DF91CF911F910F91EF9008959C
:10118000A9E0B0E0E6ECF8E00C94FD0A6A01F22E6A
:10119000B02E102FFBE3AF2EA01608F41BE31F5F49
:1011A000012F27E0AE014F5F5F4F0E941F0ABC0175
:1011B0008981982F9970913009F43FC09BE2E1FC3E
:1011C00004C09E2D9170E0FC3AC05E2D5071E82F56
:1011D000E87083FF46C084E0911101C083E0EF2DE9
:1011E000E81B8F1508F0E0E0D6018E2F20E2552392
:1011F00051F1992329F0D6019C93C60101966C0107
:1012000096012D5F3F4FE2FE24C08EE4D6018C9301
:1012100091E411969C93119712968C93D9018E2F7D
:1012200090E281111BC0E20FF32FF11D10828EEFAF
:101230009FEF2996ECE00C94190B9DE2C6CF90E24B
:10124000C4CF2D9381508111FCCFCE0ED11CE0E094
:10125000D0CF8EE6D6018C9391E6DBCF9D93815063
:10126000E0CF482F447082FF3DC084E0911101C05F
:1012700083E08F1510F4EF2DE81BD6018E2F20E2AE
:10128000552309F1992329F0D6019C93C6010196B3
:101290006C0196012D5F3F4FE2FE1BC089E4D60131
:1012A0008C938EE411968C93119786E412968C930E
:1012B000D9018E2F90E2882309F4B5CF9D938150F8
:1012C000FACF2D9381508111FCCFCE0ED11CE0E0DE
:1012D000D9CF89E6D6018C938EE611968C9311971F
:1012E00086E6E4CF9B0177FF02C030E020E0A1E07A
:1012F000B0E0911102C0B0E0A0E0F9013196AE0F6C
:10130000BF1F8B2C912CBB2009F461C05401EFEF5F
:10131000AE1ABE0AAA0DBB1DFA161B0619F014F070
:101320004F2D4A1B511188C0E3FC59C07601A42FF0
:10133000B0E2A1114FC0C40ED11C992309F45BC0C7
:1013400040E0D6011196F60190836D01552309F412
:1013500048C0012F060F9A81582F507184FF03C097
:10136000913309F4015010160CF047C0093008F011
:1013700008E0EEE2FE2E5B01A01AB108850191940F
:10138000819491082F3F320729F4D601FC92F6018F
:1013900031966F016217730794F1021713077CF5FA
:1013A000DB01A21BB30BAA24A394B12CAC0EBD1E6F
:1013B000AA0DBB1D11968C9121503109D6011196B1
:1013C00028153905F4F0F60180836D01DBCFB12CCF
:1013D000A12CA0CFF701B1937F01A150AACF911109
:1013E000B0CFD601942F50E302C05D93915091117C
:1013F000FCCFC40ED11C40E0ACCF01E0BACF80E3FB
:10140000DBCF6217730731F4963388F4953311F408
:10141000552369F0F6018083FD01842F90E281114C
:1014200008C0A40FB11D1C9290E080E002CF81E3C0
:10143000F1CF91938150F3CF911183CF8ACF283090
:1014400008F027E03327DA01990F311D87FD9160FD
:1014500000966105710539F432602E5F3D9330E3EB
:101460002A95E1F708959F3F30F0803871056105B6
:1014700009F03C5F3C5F3D93913008F08068911D1E
:10148000DF93CF931F930F93FF92EF92192F987FC3
:101490009695E92F96959695E90FFF27EE53FF4F06
:1014A00099273327EE24FF24A701E701059008942C
:1014B000079428F4360FE71EF81E491F511D660FCA
:1014C000771F881F991F0694A1F70590079428F4A9
:1014D000E70EF81E491F561FC11D770F881F991F61
:1014E000661F0694A1F70590079428F4F80E491F8B
:1014F000561FC71FD11D880F991F661F771F06949F
:10150000A1F70590079420F4490F561FC71FD81F55
:10151000990F661F771F881F0694A9F7849110956D
:10152000177041F0D695C79557954795F794E7946E
:101530001A95C1F7E8E6F0E0689415901591359199
:101540006591959105907FE27395E118F10A430B3F
:10155000560BC90BD009C0F7E10CF11E431F561FF3
:10156000C91FD01D7EF4703311F48A95E6CFE8943C
:10157000015030F0080F0AF40027021708F4202F5A
:101580002395022F7A3328F079E37D932A95E9F7A2
:1015900010C07D932A9589F606949795679537959F
:1015A00017951794E118F10A430B560BC90BD00994
:1015B00098F023957E9173957A3308F070E37C93CD
:1015C0002013B8F77E9170617D9330F0839571E3BD
:1015D0007D9370E32A95E1F71124EF90FF900F912E
:1015E0001F91CF91DF91992787FD909508952F92B4
:1015F0003F924F925F926F927F928F929F92AF92A3
:10160000BF92CF92DF92EF92FF920F931F93CF93EF
:10161000DF93CDB7DEB7CA1BDB0B0FB6F894DEBF86
:101620000FBECDBF09942A88398848885F846E84AC
:101630007D848C849B84AA84B984C884DF80EE80F6
:10164000FD800C811B81AA81B981CE0FD11D0FB6FF
:10165000F894DEBF0FBECDBFED010895E89409C038
:1016600097FB3EF490958095709561957F4F8F4FD5
:101670009F4F9923A9F0F92F96E9BB279395F695EB
:10168000879577956795B795F111F8CFFAF4BB0F69
:1016900011F460FF1BC06F5F7F4F8F4F9F4F16C0CD
:1016A000882311F096E911C0772321F09EE8872F57
:1016B000762F05C0662371F096E8862F70E060E013
:1016C0002AF09A95660F771F881FDAF7880F96958C
:1016D000879597F908950E947E0B0C94EF0B0E945A
:1016E000E10B38F00E94E80B20F0952311F00C94E8
:1016F000D80B0C94DE0B11240C94230C0E94000CCC
:1017000070F3959FC1F3950F50E0551F629FF00154
:10171000729FBB27F00DB11D639FAA27F00DB11D6D
:10172000AA1F649F6627B00DA11D661F829F2227F6
:10173000B00DA11D621F739FB00DA11D621F839F7D
:10174000A00D611D221F749F3327A00D611D231F53
:10175000849F600D211D822F762F6A2F11249F57A1
:1017600050409AF0F1F088234AF0EE0FFF1FBB1FA4
:10177000661F771F881F91505040A9F79E3F510563
:1017800080F00C94D80B0C94230C5F3FE4F3983E4C
:10179000D4F3869577956795B795F795E7959F5F0D
:1017A000C1F7FE2B880F911D9695879597F908959F
:1017B00097F99F6780E870E060E008959FEF80EC04
:1017C000089500240A9416161706180609060895A7
:1017D00000240A9412161306140605060895092E0D
:1017E0000394000C11F4882352F0BB0F40F4BF2B7C
:1017F00011F460FF04C06F5F7F4F8F4F9F4F0895BC
:1018000057FD9058440F551F59F05F3F71F04795B1
:10181000880F97FB991F61F09F3F79F08795089596
:10182000121613061406551FF2CF4695F1DF08C0B5
:10183000161617061806991FF1CF869571056105D2
:1018400008940895E894BB2766277727CB0197F97A
:101850000895EE0FFF1F0590F491E02D09940F936A
:101860001F93CF93DF938230910510F482E090E0D4
:10187000E091AC02F091AD0230E020E0B0E0A0E0F9
:10188000309799F42115310509F44AC0281B390B0A
:1018900024303105D8F58A819B816115710589F164
:1018A000FB0193838283FE0111C04081518102813B
:1018B000138148175907E0F04817590799F4109712
:1018C00061F012960C93129713961C933296CF01E7
:1018D000DF91CF911F910F9108950093AC02109367
:1018E000AD02F4CF2115310551F04217530738F0FE
:1018F000A901DB019A01BD01DF01F801C1CFEF01B0
:10190000F9CF9093AD028093AC02CDCFFE01E20FF0
:10191000F31F819391932250310939832883D7CFC4
:101920002091AA023091AB02232B41F420910201B5
:10193000309103013093AB022093AA022091000161
:10194000309101012115310541F42DB73EB7409189
:10195000040150910501241B350BE091AA02F0917E
:10196000AB02E217F307A0F42E1B3F0B2817390731
:1019700078F0AC014E5F5F4F2417350748F04E0FEB
:101980005F1F5093AB024093AA02819391939FCF24
:10199000F0E0E0E09CCFCF93DF930097E9F0FC010B
:1019A000329713821282A091AC02B091AD02ED0188
:1019B00030E020E01097A1F420813181820F931F45
:1019C0002091AA023091AB022817390709F061C0B3
:1019D000F093AB02E093AA02DF91CF910895EA0160
:1019E000CE17DF07E8F54A815B819E01411551055D
:1019F000B1F7E901FB83EA8349915991C40FD51FDF
:101A0000EC17FD0761F4808191810296840F951F88
:101A1000E90199838883828193819B838A83F0E0A3
:101A2000E0E012968D919C9113970097B9F52D9156
:101A30003C911197CD010296820F931F2091AA022B
:101A40003091AB022817390739F6309751F51092CB
:101A5000AD021092AC02B093AB02A093AA02BCCF2D
:101A6000D383C28340815181840F951FC817D90742
:101A700061F44E5F5F4F88819981480F591F5183F0
:101A800040838A819B81938382832115310509F0EC
:101A9000B0CFF093AD02E093AC029ECFFD01DC012C
:101AA000C0CF13821282D7CFFB01DC018D91019050
:101AB00080190110D9F3990B0895AEE0B0E0E3E688
:101AC000FDE00C94050B0D891E8986E08C831A833A
:101AD00009838FEF9FE79E838D83AE01475E5F4F43
:101AE0006F89788DCE0101960E94990D2F813885DE
:101AF000020F131FF80110822E96E4E00C94210BC4
:101B0000AEE0B0E0E6E8FDE00C94070B85E08C83E6
:101B10008B899C899A838983AE01495E5F4F6D8969
:101B20007E89CE0101960E94FE102E96E2E00C9472
:101B3000230BABE0B0E0EFE9FDE00C94F70A7C0189
:101B40003B018A01FC0117821682838181FFC8C193
:101B5000CE0101965C01F7019381F30193FD85911C
:101B600093FF81913F01882309F453C1853239F4F1
:101B700093FD859193FF81913F01853229F4B7014F
:101B800090E00E946912E7CF912C212C312CFFE1CB
:101B9000F31538F08B3211F190F4803209F1833271
:101BA00029F137FC3CC020ED280F2A3050F536FED5
:101BB00020C08AE0989E200D1124922E06C08D32FE
:101BC00091F0803371F7689430F8F30193FD8591BB
:101BD00093FF81913F018111DACF21C0689431F8E0
:101BE000689432F8F2CF689433F8EFCF689434F801
:101BF000ECCFEAE02E9E200D1124222E689435F8B9
:101C0000E4CF8E3229F436FC04C1689436F8DDCF77
:101C10008C3619F4689437F8D8CF8836B1F2982FFB
:101C20009F7D95549330E0F08336A1F18337C1F165
:101C3000833509F063C02801F2E04F0E511CF80112
:101C4000C080D180692D70E036FC02C06FEF7FEF5D
:101C5000C6010E9417124C01689437F882010AC02D
:101C60000C5F1F4FFFE3F98388248394912C650157
:101C7000E89437F833FE2DC0522C8114910471F58D
:101C8000552009F468CFB70180E290E00E94691204
:101C90005A94F6CFF801808189830E5F1F4FE4CFFD
:101CA0002801F2E04F0E511CF801C080D180692D4F
:101CB00070E036FC02C06FEF7FEFC6010E94221277
:101CC0004C018201D5CFB70180E290E00E946912F9
:101CD0002A942814190409F0B0F7CECFF60137FC86
:101CE000859137FE81916F01B70190E00E946912E2
:101CF00051105A94F1E08F1A9108BFCF843619F031
:101D0000893609F077C0F80137FE6BC060817181B8
:101D1000828193810C5F1F4FF32DFF763F2E97FF3B
:101D200009C090958095709561957F4F8F4F9F4F1B
:101D3000689437F82AE030E0A5010E94B112C82E5D
:101D4000CA188C2C432C36FE0CC0E89440F8C914F9
:101D500040F434FE05C032FC03C0F32DFE7E4F2E4E
:101D6000892C44FE95C0FE01EC0DF11D808180336D
:101D700009F087C0242D297E422E842D8870582E8C
:101D800043FC95C040FE8FC09C2C821418F42C0C90
:101D9000922C981844FE91C0B70180E390E00E9415
:101DA000691242FE09C088E790E041FE02C088E562
:101DB00090E0B7010E946912C91408F48AC0CA945D
:101DC000D12C9FEFC91AD90ACA0CDB1CF6018291EB
:101DD0006F01B70190E00E946912AC14BD04B1F725
:101DE0004FCF60817181072E000C880B990B0E5F1D
:101DF0001F4F92CFD32CE894D4F82AE030E08537F7
:101E000039F1232D297FD22E8F3601F148F4883500
:101E1000A9F0F701868197812B96E2E10C94130BD0
:101E2000803749F08837A9F7D4FE02C06894D2F809
:101E300020E130E00DC06894D4F8F6CF34FE03C042
:101E4000822F8660D82E20E132E002C028E030E008
:101E5000F801D7FE0FC060817181828193810C5F90
:101E60001F4FA5010E94B112C82ECA183D2CE8943C
:101E700037F867CF6081718190E080E00E5F1F4F7F
:101E8000F0CF42FC02C0839478CF8394839475CFC3
:101E9000842D867809F471CFF6CFB70180E290E007
:101EA0000E94691283948214C0F3512C73CF522C78
:101EB0005818821408F46ECFF8CF842D867809F470
:101EC0007BCF8BE241FE80E247FC8DE2B70190E0E0
:101ED00071CFB70180E390E00E9469129A946CCFB1
:101EE0008FEF9FEF99CF20FD09C0FC0123FD05C0B6
:101EF00022FF02C07383628351834083089544FDAF
:101F000017C046FD1DC0DB01FC01AA0FBB1FEE1F61
:101F1000FF1F1094D1F76A0F7B1F8E1F9F1F660F44
:101F2000771F881F991F620F711D811D911D0895D4
:101F300033E0660F771F881F991F3150D1F7F3CF19
:101F400034E0F7CF0F931F93CF93DF938C01C80139
:101F50000E942D12EC0197FD08C00E940312892BEC
:101F6000B1F7B801CE010E949912CE01DF91CF9155
:101F70001F910F9108958F929F92AF92BF92EF920F
:101F8000FF920F931F93CF93DF938C01D62F7A018B
:101F9000B22E0E942D129C0133272B32310529F0DD
:101FA0002D323105A9F46894B7F8D15061F480E07E
:101FB000DF91CF911F910F91FF90EF90BF90AF9065
:101FC0009F908F900895C8010E942D1297FDEFCF2A
:101FD000CB2DCD7F2B2D2073F9F48033E9F4AA2487
:101FE000AA94AD0E89F0C8010E942D1297FD0CC075
:101FF000282F2F7D283561F4C264D25029F0C80102
:102000000E942D1297FF08C0812C912C54011BC0F7
:10201000B6FE2BC0C260DA2D812C912C540120ED2C
:10202000280F283028F1C4FD09C02A3008F1C6FF66
:1020300005C02F7D3FEE320F3630C8F0B8010E9448
:102040009912C1FFB4CFC7FF08C0B094A094909478
:102050008094811C911CA11CB11C2C2FB501A401E2
:10206000C7010E94730F81E0A3CFC261D4CF275074
:102070004C2FC501B4010E947F0F4B015C01C2606F
:10208000D15009F3C8010E942D1297FFC8CFD9CFB4
:10209000A0E2B0E0EEE4F0E10C94FC0A5C01962EC4
:1020A0007A01CE0101966C0180E2F60111928A95C7
:1020B000E9F7F501B381890130E020E0712C812C32
:1020C000A0E041E050E0F801B3FD8591B3FF8191BC
:1020D000982F8F01811107C010E000E0C801A09681
:1020E000EDE00C94180B8E3519F42115310541F1F2
:1020F000A21713064CF48D3549F18D3229F4811065
:1021000006C0882483941DC0882009F464C0E92F88
:10211000E695E695E695EC0DFD2DF11D892F87706E
:10212000BA0101C0660F8A95EAF78081682B608347
:10213000791651F0971510F49F5FE9CF9150E7CFD2
:10214000A1E02F5F3F4FBFCF812CFBCF882019F03C
:102150008E8180628E83AA2359F0F6019E012F5D45
:102160003F4F8081809580833196E217F307C9F74E
:1021700088248394C5010E942D1297FD16C0E82F74
:10218000E695E695E695EC0DFD2DF11D208130E0FC
:10219000AC014770552702C0359527954A95E2F75F
:1021A00020FD06C0B5010E949912882069F094CFE5
:1021B000E114F10429F0F7018083C70101967C0145
:1021C0009A94812C9110D6CFE114F10409F486CFB2
:1021D000F701108283CFE82FE695E695E695EC0DA2
:1021E000FD2DF11D982F9770BA0101C0660F9A95C9
:1021F000EAF79081692B6083782EA3CFB0E0A0E04E
:10220000E4E0F1E10C94FA0A6C01EB015A01FC01E3
:1022100017821682512CF601E380FE01E3FC8591C2
:10222000E3FE8191182FEF018823E9F090E00E94EE
:102230000312892B21F0C6010E94A20FECCF1532A8
:1022400041F4FE01E3FC1591E3FE1191EF0115321B
:1022500069F4C6010E942D1297FD8EC01817D9F29D
:10226000B6010E949912852D90E08AC000E01A32D2
:1022700031F4E3FC1591E3FE1191EF0101E0F12C43
:1022800020ED210F2A3048F101FF37C0FF2059F31C
:102290001836B1F11C3609F43DC0112321F3612F2A
:1022A00070E082E691E00E940C12892BE1F2912C01
:1022B000812C00FD06C0F50180809180C501029649
:1022C0005C011E3679F5F6014681578170E060E0C9
:1022D000202FC4010E94730F9ECF02606F2D70E00B
:1022E00090E080E040E20E947F0FF62EFE01E3FCCA
:1022F0001591E3FE1191EF01C3CFFF24FA94C8CFEB
:10230000FE01E3FC1591E3FE1191EF01183609F08F
:10231000C4CF08600460FE01E3FC1591E3FE119157
:10232000EF01BBCF1336C1F401FD02C0FF24F394CB
:10233000C6010E942D1297FD1FC08114910429F03F
:10234000F4018083C40101964C01FA94F110F0CF9E
:1023500000FD61CF53945FCF1B35B9F49E01A401FA
:102360006F2DC6010E944810EC01892B89F7F601F8
:102370008381807309F477CF8FEF9FEF511073CF74
:10238000CDB7DEB7EFE00C94160BC6010E94A20F8A
:1023900097FDF2CF1F36A9F130F4143641F019360B
:1023A00039F0006405C01337B9F01537D1F7006272
:1023B000202FA4016F2DC6010E94BB0F8111C8CF31
:1023C000D6CF8114910429F0F4016082C4010196F2
:1023D0004C01FA94FF2071F0C6010E942D123C01BD
:1023E00097FD08C00E940312892B59F3B601C3015F
:1023F0000E9499128114910409F4AACFF401108269
:10240000A7CF0061D5CF91110C940F13803219F032
:1024100089508550C8F70895FC010590061621F0F3
:102420000020D9F7C00108953197CF010895FC012C
:102430000590615070400110D8F7809590958E0FEF
:102440009F1F0895FC016150704001900110D8F762
:10245000809590958E0F9F1F0895CF93DF93EC0189
:102460002B8120FF1AC026FF0CC02F7B2B838E816F
:102470009F8101969F838E838A8190E0DF91CF9127
:10248000089522FF18C0E881F9818081082E000C90
:10249000990B009729F420622B838FEF9FEFEECFEB
:1024A0003196F983E8832E813F812F5F3F4F3F8331
:1024B0002E839927E3CFEA85FB85099597FFF3CF14
:1024C0002B81019621F080E2822B8B83E6CF80E185
:1024D000FBCF0F931F93CF93DF93182F092FEB019F
:1024E0008B8181FD09C01FEF0FEF812F902FDF91AE
:1024F000CF911F910F91089582FF14C02E813F81CB
:102500008C819D81281739073CF4E881F981CF013E
:1025100001969983888310838E819F8101969F8382
:102520008E83E3CFE885F985812F0995892BA1F367
:10253000DACFFB01238120FF11C026FD0FC08F3FA2
:10254000980771F082832F7D206423832681378151
:102550002150310937832683992708958FEF9FEF04
:102560000895FA01AA27283051F1203181F1E89429
:102570006F936E7F6E5F7F4F8F4F9F4FAF4FB1E076
:102580003ED0B4E03CD0670F781F891F9A1FA11D71
:10259000680F791F8A1F911DA11D6A0F711D811D72
:1025A000911DA11D20D009F468943F912AE0269F37
:1025B00011243019305D3193DEF6CF010895462F96
:1025C0004770405D4193B3E00FD0C9F7F6CF462F77
:1025D0004F70405D4A3318F0495D31FD40524193E0
:1025E00002D0A9F7EACFB4E0A6959795879577959D
:1025F0006795BA95C9F700976105710508959B0124
:10260000AC010A2E06945795479537952795BA95AC
:10261000C9F7620F731F841F951FA01D0895992786
:0826200088270895F894FFCF0C
:102628000000AE028000000000009602F6012302BE
:10263800E302540232024602000000002704FA03B3
:102648005604D703ED01E703D803256400476976EC
:10265800650025643B25643A256C782125732A009A
:00000001FF
